:020000040000FA
:10000000021305022003FFFFFFFFFF02200BFFFF8B
:10001000FFFFFF020E67FFFFFFFFFF02201BFFFF36
:10002000FFFFFF022023FFFFFFFFFF02202BFFFF48
:10003000FFFFFF022033FFFFFFFFFF020EAAFFFFBB
:10004000FFFFFF022043FFFFFFFFFF02204BFFFFE8
:10005000FFFFFF022053FFFFFFFFFF02205BFFFFB8
:10006000FFFFFF022063FFFFFFFFFF02206BFFFF88
:10007000FFFFFF022073FFFFFFFFFF02207BFFFF58
:10008000FFFFFF022083FFFFFFFFFF02208BFFFF28
:10009000FFFF70DFFFFF040000000002000000C847
:1000A0000300030369A5020269A501000000000026
:1000B00004003273000074F812104C900393E06057
:1000C0001590030274FEF0900304744DF0A37405C0
:1000D000F07A0112068C7F0102116974F712104C3C
:1000E00074FF1212717E00801F851882851983E0CB
:1000F00064FE70069003877401F085188285198369
:10010000E0F8900384E068F07C017D00AA18AB1948
:10011000120E228B09EA450970030201F385188249
:10012000851983E064EF70027E07E0C0E0900387EA
:10013000E0FA900385E0F8EA28F8E43400F9740264
:1001400028F582740339F583D0E0F0900387E060EE
:100150009814600E14602C14603C14605214606893
:100160008098900384E4F0851882851983E09003D9
:1001700086F0C394809003874004E40200F974027F
:100180000200F9851882851983E0900382F09003BC
:100190008774030200F9851882851983E090038330
:1001A000F0900386E0601990038774040200F990D0
:1001B0000385E004F0F8900386E06860030200FA2B
:1001C00090038774050200F9900385E4F09003879B
:1001D000F0900384E0F8851882851983E068600355
:1001E0000200FA900382E0644D60030200FA1203F9
:1001F000288002EEF9740112123D7F020211697427
:10020000F712104C74FB121271EAFEEBFF75080432
:1002100075090078081212D574021212EE7A907BDA
:10022000007904120ECB740212123D12067E1213D4
:100230003FE0687003A3E069701285188285198316
:10024000E0F47003A3E0F4600302030874041212E4
:10025000E61206E48A088B09A808A9097402121399
:100260003FE8F0A3E9F0740412133FE0600879015D
:100270001200B6020321851882851983E068700395
:10028000A3E0697076851882851983E0F47003A372
:10029000E0F47019740212133F7410F0A37420F08C
:1002A0008518828519837410F0A37420F0750801F5
:1002B00075090078081212D574021212EE7A247BA6
:1002C00008120F4F740212123D75080478081212BA
:1002D000D574021212EE7A907B007904120ECB7460
:1002E0000212123D12067E12133FE0687003A3E073
:1002F000697004790280067904800279031200B6DD
:100300008E828F83741E80058E828F83E4F01206A6
:100310007E12133FE0687003A3E0697004790180E6
:1003200002790074050201F774E912104C74F81296
:100330001271900307E0FA900306E0F9FEEAFCE48C
:10034000CCFDEE2CED3408FF751001750F00750E15
:10035000068E088F097402780812129CC39508FC57
:10036000E49509FD74022CF51474033DF515E514AC
:100370002497F516E5153420F517EE2410F508E45A
:100380003FF509EEF50CEF5401F50D8E128F137445
:100390000978121212F685120A900383E01460574E
:1003A00014700302046F1470030204E61460102436
:1003B000FE70030205A11470030206510206617566
:1003C0000E03794E120C619003071206747402F04A
:1003D000A374401206727408120672F0A3F0741827
:1003E000C3940704F510AA10A90F12068CA90E7465
:1003F0000812123D02083E750E04794E120C61EE91
:10040000450D7005A90A120FB5C3EE9425EF9408A7
:10041000503FC3E5089424E50994084034E51424CA
:1004200096F8E5153420F988828983E0701E8516D8
:1004300082851783E070159003887401F0888289A3
:100440008374A5F08516828517838004900388E461
:10045000F075081075090078081212D57C087D0324
:10046000EEFAEFFB120F4F740212123D0203E67513
:100470000E05C3E50A947995E04006750F01020365
:10048000E675104075110078101212D57C097D03B5
:100490007402780C12129CAA0CAB0DA90A120ECB96
:1004A000740212123D900307E0A3F0900306E0A34C
:1004B000F0751043C3EE9425EF940840030203E661
:1004C000C3E5089424E509940850030203E6900369
:1004D00088E070030203E6A816A91788828983E4DE
:1004E000F0A3F00203E675080475090078081212FB
:1004F000D574021212EE7A907B007904120ECB743E
:100500000212123D740212133FE0F8A3E0F98518BD
:1005100082851983E0687003A3E0698518828519D4
:1005200083700BE0F47003A3E0F470578009E0F4EB
:100530007003A3E0F4700D8518828519837410F0A0
:10054000A37420F012067E12133FE8F0A3E9F075C1
:10055000080178081212D574021212EE7A247B0870
:10056000120F4F740212123D75080478081212D54A
:1005700074021212EE7A907B007904120ECB740290
:1005800012123D12067E12133FE0687003A3E06969
:100590007006750E010203E6750E02750F07020361
:1005A000E6900391E06007640260030203E6EAFF5D
:1005B0007A01790012068CE060030206458003127E
:1005C0000D22120D2CE970F7740412133F12066607
:1005D000740412133F780812132385080C85090D43
:1005E000850A0E850B0F9005A2780C1212C27404B6
:1005F00012133F780C121314E5084509450A450B00
:1006000070CE8EC2E5C554E04FF5C5740412133F99
:10061000120666740412133F780812132385080C1F
:1006200085090D850A0E850B0F9005A2780C121214
:10063000C2740412133F780C121314E508450945DF
:100640000A450B70CE7A01790012068C79080203F4
:10065000EFE9900393F070030203E6750E090203BD
:10066000E679060203EFE4F0A37426F0A3E4F0A316
:10067000F022F0A3E4F0A3F0A3F0A3F0A3228518E6
:1006800082851983E0F8A3E0F974022274F812104D
:100690004CEAFE900305E0D2E7F0E9A3F0EE900308
:1006A00003F08E0874042AFE7C028004E062080CC9
:1006B000ECFA3395E0FB74022AF58274033BF58370
:1006C000EEF8C3EA98EB9400A2D265D03340DDE5A2
:1006D00008F074012A0C3395E0FD7A027B03120EB8
:1006E000520200D674E912104C7582007583FE1216
:1006F00012048A168B177514007515008A828B8375
:10070000E4F0900391E07006D2AAD2AF80046402B4
:10071000700579001200B6750C00750D20750E007D
:10072000750F00900391E0600464027015120D22B1
:100730001200DBE9F87409686003020814790012FA
:1007400000B675080075090278081212D5740212F5
:1007500012EE850C08850D09AA08E5095407FB85EA
:100760000E0A850F0B740B7808121258A908120E86
:10077000CB740212123D7E007F009005AAC0828ECB
:1007800010EFF5113395E0F512F513850C08850D82
:1007900009850E0A850F0B780879101212AF9005A3
:1007A000A678081212C2758305D08278081211E566
:1007B000501D851882851983E5822EF582E5833FD9
:1007C000F583E0F9AA14AB151208438A148B150EB1
:1007D000EE70010FC3EF940240A09005AE780C12AA
:1007E00012C29005B2780C1211E54003020723797A
:1007F00000AA14AB1512084379001208438B159018
:100800000391E07004C2AFC2AAEA451570277AA529
:100810007BA58021E870030207427406687003021A
:1008200007427407687003020742851682851783A2
:100830007401F080BA7582007583021212047F1071
:10084000021169C008C0097C088A088B09740F78F6
:10085000081212F6E508F8EA25E0FAEB33FBE9A204
:10086000E7500474014AFAE8A2E0500874216AFAD9
:1008700074106BFBE9C333F91CEC70CDD009D008C0
:100880002274F812104C78007900802274942EF5AE
:1008900082E43403F583E08A828B83F0900414129F
:1008A0000A014005900414E4F008E870010990047E
:1008B00014E0FEA3E06E6007C3E89CE99D40CDE82C
:1008C000FAE9FB7F0102116974F712104C90049849
:1008D000E0F509A3E0F508F8E509C398F895E0F913
:1008E000E508C39509E8500B120AE3701178007906
:1008F00000801B247F500109C39CE99D50EF7A00C2
:100900007B008041E004F0D2E908E8700109C3E807
:100910009CE99D502C8A828B83E0C0E0900499E092
:10092000FE74182EF582E43404F583D0E0120AD365
:1009300090049AE4F0900499E0C3947F40C6E48068
:10094000C5E8FAE9FB7F02021169C082C083C2E9EF
:10095000900498E0F8A3E0686017741828F582E422
:100960003404F583E0F5C1900498120AFA4002E4D9
:10097000F0020D4074F812104C7800790090051DBB
:10098000E07055A3E0705175F900C28FC284A28354
:1009900040FCA28F4004A28350F8AEF9C28FA2831C
:1009A0005004D2848032EEC0E0E0FE1209F6D0E0BE
:1009B000F090051E120AFA40D9E4F080D51209F62B
:1009C000E08A828B83F090051D120A014005900594
:1009D0001DE4F008E870010990051DE0FEA3E06E3B
:1009E0006007C3E89CE99D40D4E8497006E4F090B4
:1009F000051DF00208BF749D2EF582E43404F583D2
:100A000022E004120AD7C394802274F812104C908A
:100A100005A0E0FEF890059FE0FFEEC39FE0500DBB
:100A2000C398F895E0F9120AE270188012C398F89A
:100A300095E0F9E8247F500109C39CE99D4004EC4E
:100A40004D70077A007B00020AD08A828B83E0F522
:100A5000F9A3AA82AB83780179008008E004F0084A
:100A6000E8700109C3E89CE99D50278A828B83E0E6
:100A7000C0E09005A0E0FE741F2EF582E43405F579
:100A800083D0E0120AD39005A0E0C3947F40CDE468
:100A900080CCC28FA28340FCC284A28F4004A28378
:100AA00050F890059F120AEDE0F5F9C28F90059F6E
:100AB000E0FAA3E06A90059F7005120AED80051226
:100AC0000AFA4002E4F0A28350D0D284E8FAE9FBAB
:100AD0000208C3120AD722F08A828B83A3AA82ABB0
:100AE0008322E824FF18E934FFF9E84922E0FA7488
:100AF0001F2AF582E43405F58322E004F0C39480D4
:100B00002274FB121271C2009005CA7808121323D6
:100B10009005CA7401F0A3F0A37469F0A374A5F062
:100B20009005B678081212877004D20080159005DF
:100B3000BA78081212876008E59D54186410700393
:100B4000022000120C87A2005003020C04AA18AB6A
:100B5000191201FFE97003020C04851882851983BC
:100B6000E0C3943C500CE0F8743CC398FA95E0FB69
:100B700080047A007B00120D45E97003020C04909A
:100B80000391E06401700C75F800C2AB539AF7D280
:100B9000EA805E79071200B68003120D22120D2C36
:100BA000E970F7740112133FE4F0A37426F0A3E494
:100BB000F0A3F0740112133F780812132385080C78
:100BC00085090D850A0E850B0F9005A2780C12126F
:100BD000C2740112133F780C121314E5084509453D
:100BE0000A450B70CE758600C2AAC28B539AFBC20F
:100BF000E990000174CDF0022000C2AF75C9AB7559
:100C0000C95B80FE750800750900750A00750B0048
:100C1000900391E0701BD2AAD2AF79051200B6E022
:100C20007003120D221200DBE9F874096870098064
:100C3000E9794E120C6180ED74016870E2E0701782
:100C4000120D229005BE78081212C29005C27808D3
:100C50001211E550EBC2AAC2AF75C9AB75C95B8072
:100C6000FEC082C08378109005A1E0C3995015752D
:100C7000B60FE5B4A2E750FAE5BBC39940F118E816
:100C800070EDE9F0020D40C082C08353BEFBE59DCC
:100C9000A2E650FA0078F8790100120AE270FA75BB
:100CA000C6807480659E70FA43BE049062707408BA
:100CB000F0794A120C6190000174F5F07403F5D5D7
:100CC00075D489A2A0E433900391F0A2E05029D218
:100CD0008453F3F753F3EF53FDF743FD10538FF7AE
:100CE00053F7DF43FC2043F10253F5DF75F820434F
:100CF000F4F0D2FED2AB802853FF3F85FFFF53F1C3
:100D0000FE43F30C53F2F375868075C48090049B08
:100D1000E4F0A3F075C2D875C50B75C402438640D4
:100D2000801E800312094AA2E940F922C082C083D2
:100D3000900498E0F8A3E0686004790180027900EB
:100D4000D083D0822274F112104C74FF1212717E83
:100D500000900391E06401706CC28490039274016E
:100D6000F07508388E098E0A8E0B7C017D00AA185A
:100D7000AB19120E228B0DEA450D6018851882857D
:100D80001983E06410602DE064EF70088E088E090E
:100D90008E0A8E0B85080C85090D850A0E850B0FB2
:100DA0009005A278081212C2E50C450D450E450FBC
:100DB00070347E01900391E064017056D2849003F8
:100DC00092E4F08051D2AAD2AF8A088B09E4F50AE6
:100DD000F50B9005C6780C1213237808790C120FC6
:100DE000CC79061200B6900391E06003020D6A12FE
:100DF0000D221200DBE9F874096870077906120009
:100E0000B680917407686084E8608974066870A48D
:100E10008082C2AFC2AAEEF9740112123D7F0802AD
:100E20001169C082C083900391E07005120881802F
:100E30001E900392E06015A28F500BE5F98A828B19
:100E400083F07A0180027A007B0080031209740229
:100E50000D40C082C083900391E070051208C880E5
:100E600003120A0A020D40C0E074F21210B29000A0
:100E700001E064CD7005122013802AE064F570242F
:100E8000E5C1C28BC0E0900415E0F8749428F582A7
:100E9000E43403F583D0E0F0900415120AFA40051B
:100EA000E4F08001007F01021111C0E074F2121021
:100EB000B2900001E064CD700512203B800BE0642D
:100EC000F5700512094A80010080DA74F612104CA0
:100ED000890A740F550AF508750900740B78081211
:100EE000129CEA2400F8EB3480F9E82400E9350983
:100EF000F985C709A2AFE433F508C2AFE50AC454C7
:100F00000FFAE5C754F84AF5C7740A12133FE0FA1E
:100F1000A3E0FB801C88828983E08C828D83F0882B
:100F2000828983A3A882A9838C828D83A3AC82AD9E
:100F300083EAFEEBFFEE24FF1AEF34FFFBEE4F7067
:100F4000D48509C7E508A2E092AF7F030211697456
:100F5000F712104CED900389F0ECA3F0A37462F04B
:100F6000A37473F0A3E0541FF0740912133FE0F56B
:100F700008A3E0F509E508333354FC90038EF074C0
:100F80000678081212F6E50890038DF090038F742E
:100F900012F0A37442F075D1FE75D601EA90627129
:100FA000F0EBA3F0906270E0D2E1F0E0A2E740FB4A
:100FB0007F02021169C082C083E9C333906272F07C
:100FC000906270E0D2E0F0D083D08222080808EA74
:100FD000C0E0EBC0E086F0E7A4FA180986F0E7A4C9
:100FE0002AFA180986F0E7A42AFA180986F0E7A475
:100FF0002AFA1986F0E7A4FBE5F02AFA190886F028
:10100000E7A42BFBE5F03AFA190886F0E7A42BFBDE
:10101000E5F03AFA18180986F0E7A4C5F02BFBE4CE
:101020003AFA1908E7C5F0C6A426F6E5F03BFBE45A
:101030003AFA1886F0E7A4F6E5F00826F6E43B084D
:10104000F6E43A08F6D0E0FBD0E0FA222518C58293
:10105000C0E0E51934FFC583C0E0E518C3958224DC
:10106000F910AF0885831985821880088583198552
:101070008218D2AFCEF0A3E520F0A37808E608F0FE
:10108000A3DEFAEFF0A3E58124FBF8E608F0A3E67F
:1010900008F0A30808E608F0A3E608F0A3158115F8
:1010A00081D0E0FED0E0F815811581E8C0E0EEC007
:1010B000E022C0D02518C582C0E0E51934FFC58301
:1010C000C0E0E518C3958224F310AF088583198525
:1010D00082188008858319858218D2AFC8F0A3E9E9
:1010E000F0A3EAF0A3EBF0A37908E709F0A3D8FA9C
:1010F000ECF0A3EDF0A3EEF0A3EFF0A3D0E0F0A3AB
:10110000D0E0F0A3D0E0F0A3E520F0A3E5F0F0A359
:1011100022851983851882E0C0E0A3E0F9A3E0FAF4
:10112000A3E0FBA37808E0F608A3DFFAE0FCA3E065
:10113000FDA3E0FEA3E0FFA3E0C0E0A3E0C0E0A3C6
:10114000E0F5D0A3E0F520A3E0A3F5F010AF08850B
:1011500083198582188008858319858218D2AFD0BB
:1011600082D083D0E0F8D0E032851983851882E000
:10117000A3FEE0A3F5207808E0A3F608DFFAE0A3D9
:10118000FFE0A3C0E0E0A3C0E0E0A3C0E0E0A3C0B4
:10119000E010AF088582188583198008858218853C
:1011A0008319D2AFD083D08222E490030278A17950
:1011B000038002F0A3D8FCD9FA7AA27B0590008EB6
:1011C000782979018015E493A3AD82AE838A828B5E
:1011D00083F0A3AA82AB838D828E83D8E9D9E712EC
:1011E0000B01121349C008C3E096F50808A3E09666
:1011F000420808A3E096420808A3E096450870015B
:10120000D3D00822C5822518C582C583351910AFF1
:1012100007F5198582188007F519858218D2AFC5A0
:1012200083222518F58210AF08F518400C15198097
:1012300008F51840021519D2AF8519832200C0D0D5
:10124000251810AF08F518500C05198008F518502E
:10125000020519D2AFD0D0226016080808C6C31301
:10126000C618C613C618C613C618C613C6D5E0EAF4
:1012700022251810AF08F518400C15198008F5182C
:1012800040021519D2AF22E066701008A3E0667024
:101290000A08A3E066700408A3E0662270042260D6
:1012A0000D18C6C333C608C633C6D5E0F41822E607
:1012B00027F60809E637F60809E637F60809E6379B
:1012C000F622E026F608A3E036F608A3E036F60894
:1012D000A3E036F62274028000C0E0F40412122269
:1012E000D0E0121332222518FAE43519FB22251812
:1012F000FCE43519FD22600C08C6C313C618C613DA
:10130000C6D5E0F42275D00075813F7518027519B5
:10131000030211A9E6F008A3E6F008A3E6F008A38B
:10132000E6F022E0F608A3E0F608A3E0F608A3E062
:10133000F622CAC0E0E6F0A308DAFAD0E0FA2225E5
:1013400018F582E43519F5832200000080FBFFFFC9
:10135000FFFFFFFFFFFFFFFFFFFFFFFFFFFFFFFF9D
:10136000FFFFFFFFFFFFFFFFFFFFFFFFFFFFFFFF8D
:10137000FFFFFFFFFFFFFFFFFFFFFFFFFFFFFFFF7D
:10138000FFFFFFFFFFFFFFFFFFFFFFFFFFFFFFFF6D
:0A1FF600CA05094338860000000008
:020000040003F7
:01FFF000F020
:020000040000FA
:10200000022C19022215FFFFFFFFFFFFFFFFFFFF5A
:10201000FFFFFFFFFFFFFFFFFFFFFFFFFFFFFFFFD0
:10202000FFFFFFFFFFFFFFFFFFFFFF022A09FFFF88
:10203000FFFFFFFFFFFFFFFFFFFFFFFFFFFFFFFFB0
:10204000FFFFFF02275DFFFFFFFFFFFFFFFFFFFF17
:10205000FFFFFF022155FFFFFFFFFFFFFFFFFFFF15
:10206000FFFFFFFFFFFFFFFFFFFFFF0228D2FFFF81
:10207000FFFFFFFFFFFFFFFFFFFFFFFFFFFFFFFF70
:10208000FFFFFF0221A9FFFFFFFFFFFFFFFFFFFF91
:10209000102010200100F0FF0700080000FFFF00E3
:1020A00000030400000F0000000300019651180017
:1020B0000200007C3100000000E03006324C31C4E8
:1020C0003100000A3100000000000000000000168E
:1020D0003100000000000000000000223106FFFF78
:1020E000FF010400005818000000E8030000FFFF93
:1020F000D418018813000003E803000064006400A2
:10210000B801A0BB0D00A0BB0D0002020207040134
:102110000101051E0205140201780A0A01010108E5
:10212000090803B80B02803E0102FEFFE8030A051E
:102130000001FFFF0A011401E00105030101FF0F87
:1021400010FEFFB34D00000000E94C00000000FF4E
:10215000000000FF00C0E074F2122528A2AFE433B3
:10216000F508D2AFAFA7AEA1EE5F54106006122EF5
:102170006475A1EFEE5F54086008122E6A75A1F72E
:102180008023EEA2E092F0EFA2E082F0501790617F
:1021900098E0F8900668E0C398A2D265D033500268
:1021A000E8F075A1FEE5088063C0E074F21225280E
:1021B000A2AFE433FED2AF9061A4E0F8759B00E5D6
:1021C0009158540860087591F7122EB88023E59154
:1021D00058541060087591EF122EBE8014E591A23C
:1021E000E092F0E8A2E082F05007E0C2E0F01230A6
:1021F000149061A3E0F8E5E9585404600E122FEA48
:1022000075E9FB906193E0A2E640F2EEA2E092AFA6
:102210007F01022587C0E074F2122528A2AFE433C3
:10222000FED2AF9061A5E0F8E5BF58540460067592
:10223000BFFB12302C80D4C3E498F8E499F9122241
:10224000788026C3E49AFAE49BFBE920E7E91222AE
:1022500078E498F8E499F922C3E498F8E499F9123B
:102260002278E498F8E499F9C3E49AFAE49BFB2213
:10227000EB20E7CFE920E7E0B90010BB0008E88ACF
:10228000F084F8AAF022E4FBC8FA22EB70227B105B
:10229000C833C8C933C9335007C39AC3DBF28006B9
:1022A0009A50012ADBEAC833F4C8C933F4C9FA22C8
:1022B00075F008E4C833C8C933C933C99AC99B50FB
:1022C00004C92AC93BD5F0ECFBC833F4C8E4C9FA09
:1022D0002274F51224C274FA122A9C750804750936
:1022E0000078081229C07404122A667AF87B0779EC
:1022F00003122D6874021229EE90811D7808122CA9
:10230000477402122C9E7808122AC770487508027A
:1023100075090078081229C07402122A667AF67BC1
:10232000077903122D6874021229EE851882851927
:1023300083E0F47003A3E0F4601B851882851983A1
:10234000E0F8A3E08882F5837402F0A3F0A3746937
:10235000F0A374A5F0C2AF75D69F020000740612F8
:1023600029EE7F040227A0080808EAC0E0EBC0E0DD
:1023700086F0E7A4FA180986F0E7A42AFA18098675
:10238000F0E7A42AFA180986F0E7A42AFA1986F0D9
:10239000E7A4FBE5F02AFA190886F0E7A42BFBE591
:1023A000F03AFA190886F0E7A42BFBE5F03AFA18A0
:1023B000180986F0E7A4C5F02BFBE43AFA1908E700
:1023C000C5F0C6A426F6E5F03BFBE43AFA1886F021
:1023D000E7A4F6E5F00826F6E43B08F6E43A08F64A
:1023E000D0E0FBD0E0FA22E4CFC0E0E4CEC0E0E4ED
:1023F000CDC0E0E4CCC0E075F020E626F608E63378
:10240000F608E633F608E633F6181818EC33FCED58
:1024100033FDEE33FEEF33FFC3EC9709ED9709EE82
:102420009709EF97191919400FFFEC97FC09ED97E1
:10243000FD09EE97FE191906D5F0BFECF709EDF787
:1024400009EEF709EFF7191919D0E0FCD0E0FDD03B
:10245000E0FED0E0FF222518C582C0E0E51934FF78
:10246000C583C0E0E518C3958224F810AF088583C2
:10247000198582188008858319858218D2AFCEF01D
:10248000A3E520F0A37808E608F0A3DEFAEFF0A3B6
:10249000E58124FAF8E608F0A3E608F0A3E608F0E0
:1024A000A30808E608F0A3E608F0A315811581D07B
:1024B000E0FED0E0F8158115811581E8C0E0EEC09E
:1024C000E0222518C582C0E0E51934FFC583C0E0CD
:1024D000E518C3958224F910AF0885831985821801
:1024E0008008858319858218D2AFCEF0A3E520F04D
:1024F000A37808E608F0A3DEFAEFF0A3E58124FB59
:10250000F8E608F0A3E608F0A30808E608F0A3E65A
:1025100008F0A315811581D0E0FED0E0F8158115F3
:1025200081E8C0E0EEC0E022C0D02518C582C0E03E
:10253000E51934FFC583C0E0E518C3958224F31084
:10254000AF088583198582188008858319858218CC
:10255000D2AFC8F0A3E9F0A3EAF0A3EBF0A37908A7
:10256000E709F0A3D8FAECF0A3EDF0A3EEF0A3EFA7
:10257000F0A3D0E0F0A3D0E0F0A3D0E0F0A3E520FA
:10258000F0A3E5F0F0A322851983851882E0C0E06E
:10259000A3E0F9A3E0FAA3E0FBA37808E0F608A320
:1025A000DFFAE0FCA3E0FDA3E0FEA3E0FFA3E0C0B0
:1025B000E0A3E0C0E0A3E0F5D0A3E0F520A3E0A312
:1025C000F5F010AF08858319858218800885831976
:1025D000858218D2AFD082D083D0E0F8D0E032121A
:1025E0002C93B9000302261EE4900401783F791B66
:1025F0008002F0A3D8FCD9FA7A3F7B1E9020947811
:10260000C279018015E493A3AD82AE838A828B8365
:10261000F0A3AA82AB838D828E83D8E9D9E7758235
:1026200024758385740712299A7582E475834A7428
:102630000012299A75F0108E1A8F1B85821F8583D0
:102640001E851882851983E0CEA3E0CF851F828581
:102650001E83EBC9EAC8EDCBECCAC3E833C8E93343
:10266000C9EA33CAEB33CBC3EA9EF51DEB9FF51CD9
:10267000B35004AB1CAA1DEC33CCED33CDD5F0DA4E
:10268000AE1AAF1B22D083D082ECC0E0EDC0E0E4F4
:1026900093A3FCE493A3FDED4C600D1227E0EC2422
:1026A000FFFCED34FFFD80EFE493A3FCE493A3FD76
:1026B000ED4C600D12287DEC24FFFCED34FFFD8015
:1026C000EFD0E0FDD0E0FCE493A3C0E0E493C0E0F1
:1026D00022851983851882E0A3FEE0A3F5207808FF
:1026E000E0A3F608DFFAE0A3FFE0A3C0E0E0A3C0A8
:1026F000E0E0A3C0E0E0A3C0E0E0A3C0E010AF08CA
:102700008582188583198008858218858319D2AF40
:10271000D083D0820229A0D083D082E9C0E0E493A4
:10272000A3C386F0C5F095F0F908E493A386F0C53D
:10273000F095F0700BE493A3C3994005E90480027F
:10274000A3E475F002A42582F582E5F03583F583D4
:10275000D0E0F9E493A3C0E0E493C0E022C0E074C9
:10276000F2122528A2AFE433FED2AFC2C0901AE124
:10277000E0700BE5D1A2E4501D122DCE8018E5D1FA
:10278000A2E3500675D1F7122D9EE5D1A2E45006C2
:1027900075D1EF122DA4EEA2E092AF7F0102258742
:1027A000851983851882E0A3FEE0A3F5207808E070
:1027B000A3F608DFFAE0A3FFE0A3C0E0E0A3C0E0D7
:1027C000E0A3C0E0E0A3C0E010AF088582188583D5
:1027D000198008858218858319D2AFD083D08222D0
:1027E000C0E0C3E49396087401939618400FE493F5
:1027F00066700808740193661870007019A3A3C36B
:10280000E49396087401939618A3A3400DD0E0D0EA
:10281000E0D0E00226C1A3A3A3A3A3A3D0E0227427
:1028200004800474028000CCC0E0EDC0E0E518C371
:102830009CCCAD1950011D10AF068C188D19800667
:102840008C188D19D2AF12291CD0E0FDD0E0FC22EB
:1028500074028000CCC0E0EDC0E0E518C39CCCADB4
:102860001950011D10AF068C188D1980068C188D1B
:1028700019D2AF1228FAD0E0FDD0E0FC22C0E0C0AF
:10288000F088F0E49366700808740193661870008D
:10289000A8F0A3A3700BD0F0D0E0D0E0D0E00226E7
:1028A000C1A3A3D0F0D0E022D083D082CCC0E0E49A
:1028B00093A3600612297B1470FAE493A3600612B6
:1028C0002A861470FAD0E0FCE493A3C0E0E493C03D
:1028D000E022C0E074F2122528758900C2C5901A62
:1028E000E1E0700E7A007B10900700E0F9123344AB
:1028F0008003123BB47F01022587CAC0E0E493A3A2
:10290000C582CCC582C583CDC583F0A3C582CCC5A5
:1029100082C583CDC583DAE5D0E0CA22CAC0E0E033
:10292000A3C582CCC582C583CDC583F0A3C582CCA7
:10293000C582C583CDC583DAE6D0E0CA2270090816
:102940000808226016181818C6C333C608C633C64E
:1029500008C633C608C633C6D5E0EA22C008C3E0BD
:1029600096F50808A3E096420808A3E096420808F6
:10297000A3E09645087001D3D00822C0E0E493A3F9
:10298000D39C5010E493A3C39C400AD0E0D0E0D085
:10299000E00228C5A3A3A3D0E022C09FF59FE47363
:1029A000D09F22D083D082C09FE493C0E074019373
:1029B000C0E0740293F59F227404800A74038006B9
:1029C000740280027401C0E0F4041229D3D0E01232
:1029D0002C56222518F58210AF08F518400C151951
:1029E0008008F51840021519D2AF8519832200C05E
:1029F000D0251810AF08F518500C05198008F518E7
:102A000050020519D2AFD0D022C0E0C0D0E8C0E05B
:102A1000A8A8D2AFC2C7E8A2E792AFD0E0F8D0D062
:102A2000D0E032BB0102E722C082C08389828A8360
:102A3000BB0003E08002E493D083D08222601608BA
:102A40000808C6C313C618C613C618C613C618C6C8
:102A500013C6D5E0EA222518F8E43519F92225181D
:102A6000FAE43519FB222518FCE43519FD22C3E0F0
:102A7000C696F608A3E0C696F608A3E0C696F60842
:102A8000A3E0C696F622C0E0E493A36C7009D0E000
:102A9000D0E0D0E00228C5A3A3D0E022251810AFD3
:102AA00008F518400C15198008F51840021519D2C0
:102AB000AF22E76670100809E766700A0809E76642
:102AC00070040809E76622E066701008A3E06670EB
:102AD0000A08A3E066700408A3E06622C3E0960833
:102AE000A3E09608A3E09608A3E096A2D265D033AF
:102AF00022C3E096F008A3E096F008A3E096F00861
:102B0000A3E096F022C3E697F60809E697F60809CF
:102B1000E697F60809E697F622C3E493960874014F
:102B200093960874029396087403939622E493F69E
:102B300008740193F608740293F608740393F6225E
:102B4000E647F60809E647F60809E647F60809E603
:102B500047F622E026F008A3E036F008A3E036F0BE
:102B600008A3E036F022E627F60809E637F608095A
:102B7000E637F60809E637F622E657F60809E6577B
:102B8000F60809E657F60809E657F622E056F60871
:102B9000A3E056F608A3E056F608A3E056F622E0B6
:102BA00026F608A3E036F608A3E036F608A3E036DA
:102BB000F622E056F008A3E056F008A3E056F0082D
:102BC000A3E056F022700422600D18C6C333C60875
:102BD000C633C6D5E0F41822E4C396F608E496F6A8
:102BE00008E496F608E496F622C6F4C608C6F4C6CB
:102BF00008C6F4C608C6F4C622C3E7960809E796D5
:102C00000809E7960809E79622C3E09608A3E0962C
:102C100008A3E09608A3E0962275D00075813F7561
:102C20001801751904000225DF600C08C6C313C61D
:102C300018C613C6D5E0F422E6F008A3E6F008A310
:102C4000E6F008A3E6F022E0F608A3E0F608A3E029
:102C5000F608A3E0F622CAC0E0E6F0A308DAFAD04C
:102C6000E0FA22EAF0A3EBF0A3ECF0A3EDF022E00F
:102C7000FAA3E0FBA3E0FCA3E0FD22E0F8A3E0F967
:102C8000A3E0FAA3E0FB22E8F0A3E9F0A3EAF0A3B3
:102C9000EBF022E5C754F84401F5C7790122251865
:102CA000F582E43519F583221229A3A4E10512293E
:102CB000A3E2E1051229A3DCE3051229A3F8E30549
:102CC0001229A33DE4051229A3CDE4051229A32569
:102CD000E5051229A307E6051229A3ECE60512294A
:102CE000A331E7051229A392E7051229A31EE805DF
:102CF0001229A34AE8051229A395E8051229A3BBC6
:102D0000E8051229A353E9051229A3FCE9051229B4
:102D1000A34FEA051229A380EA051229A3B7EA0501
:102D20001229A35BEC051229A327ED051229A3DACA
:102D3000ED051229A3CD7F001229A3D47F0012290B
:102D4000A3EC7F001229A3FAFF011229A3E6FF05D5
:102D50001229A32493071229A33493071229A34607
:102D600093071229A38A93071229A3C08F07122958
:102D7000A34390071229A3A990071229A3F7FF01E3
:102D80001229A36594071229A37594071229A32376
:102D900094071229A3BDFF041229A3C6FF04122918
:102DA000A3CFFF041229A3DDFF041229A358FA03BD
:102DB0001229A3C5FA031229A38DFB031229A3022A
:102DC000FC031229A305FD031229A3A6FE03122961
:102DD000A30BFF031229A356FF031229A367FF03C6
:102DE0001229A376FF031229A38CFF031229A39FA4
:102DF000FF031229A3AAFF031229A3BBFF03122971
:102E0000A32ECB061229A35ACB061229A3DCCD068A
:102E10001229A333CE061229A373CE061229A38743
:102E2000CE061229A3A0CE061229A391CF061229FD
:102E3000A342D0061229A356D0061229A38A8807D6
:102E40001229A3AE88071229A3C788071229A3F95C
:102E500088071229A32989071229A356890712294D
:102E6000A3B889071229A3C789071229A3D1890703
:102E70001229A3DE89071229A3287D001229A3485D
:102E80007D001229A3877D001229A3A27D001229AB
:102E9000A3C17D001229A3277E001229A3307E0042
:102EA0001229A38D7E001229A39C7E001229A3C0A3
:102EB0007E001229A3817F001229A38E7F00122990
:102EC000A39F7F001229A39693071229A3AE93070D
:102ED0001229A3DA93071229A379DF061229A3CDB9
:102EE000E0061229A3DBE0061229A3EEE006122970
:102EF000A303E1061229A318E1061229A32BE10678
:102F00001229A39FE1061229A304E2061229A3A60F
:102F1000E2061229A36AE3061229A37AE30612291C
:102F2000A389E3061229A38B92071229A3AF920764
:102F30001229A3D792071229A3FF92071229A300EF
:102F400080071229A32780071229A3468007122988
:102F5000A3AE80071229A3BCFA061229A3D5FA064C
:102F60001229A3E1FA061229A3F5FA061229A313DE
:102F7000FB061229A31DFB061229A327FB06122913
:102F8000A33AFB061229A3CBFB061229A33AFC069F
:102F90001229A36EFC061229A3BCFC061229A30960
:102FA000FD061229A324FD061229A32EFD061229CF
:102FB000A354FD061229A3B9FD061229A347FF0158
:102FC0001229A369FF011229A3E6FF041229A3FE17
:102FD000A4061229A328A5061229A345A50612298D
:102FE000A358A5061229A36EA5061229A3CCA506EF
:102FF0001229A3FFA5061229A3F4A9061229A35496
:10300000AB061229A387AB061229A3D1AB0612295E
:10301000A33DAD061229A365AD061229A37AAD061C
:103020001229A38AAD061229A3CEAD061229A3291F
:10303000AE061229A339AE061229A3438B07122923
:10304000A35D8B071229A3858B071229A39E8B07EB
:103050001229A3C28B071229A3E08B071229A3F719
:103060008B071229A3258C071229A3408C0712294C
:10307000A3DD93071229A333F7061229A343F7060A
:103080001229A348F8061229A37AF8061229A3AA3E
:10309000F8061229A3CDF8061229A3E4F80612298E
:1030A000A31EF9061229A387F9061229A3C9F90656
:1030B0001229A308FA061229A339FA061229A364D1
:1030C000FA061229A3C7EB061229A32CEC06122933
:1030D000A3D2EC061229A309ED061229A3BBEE0523
:1030E0001229A352EF051229A380F1051229A36B1F
:1030F000F4051229A3F9F5051229A365F60512298D
:10310000A3B4F9051229A3FFFA051229A3738C07AA
:103110001229A3BE8C071229A38AFD021229A39AA1
:10312000FF021229A368B6061229A395B606122932
:10313000A3D4B7061229A36DB9061229A3F1BB06C1
:103140001229A328BC061229A376BD061229A36A58
:10315000D0061229A310D3061229A3B5D30612292B
:10316000A3E1D3061229A30FD4061229A344D4063F
:103170001229A36CD4061229A3CCD4061229A314B5
:103180008D061229A39591061229A34A93061229A6
:10319000A37394061229A35395061229A301970637
:1031A0001229A3A498061229A37099061229A3C470
:1031B00099061229A3CBFD061229A3D6FD061229D2
:1031C000A3F7FD061229A35AD1051229A331D70569
:1031D0001229A391D8051229A35BDA051229A35459
:1031E000DB051229A386DC051229A3BADD05122905
:1031F000A3C6DE051229A3AEDF051229A38FE005C1
:103200001229A399DB031229A3D1DB031229A32CD2
:10321000E6031229A30DE7031229A359E803122993
:10322000A3A2E9031229A358EA031229A32CEB0352
:103230001229A32AEC031229A37FED031229A36606
:10324000EE031229A34EEF031229A3F0EF03122974
:10325000A31AF0031229A3CAF1031229A33AF20315
:103260001229A353F2031229A3AAF3031229A35B81
:10327000F4031229A3DDF4031229A389F50312290B
:10328000A3FDF5031229A399F6031229A311F7034D
:103290001229A349F7031229A34BF8031229A30605
:1032A000F9031229A3B1F9031229A31C87071229D4
:1032B000A34687071229A35A88071229A35D880706
:1032C0001229A3A591071229A3E491071229A32685
:1032D00092071229A33692071229A37A920712297C
:1032E000A3AFC4061229A3EDC4061229A356C5062E
:1032F0001229A373C5061229A38CC5061229A33E61
:10330000C6061229A347C6061229A38CC60612298F
:10331000A3C2C6061229A3D9C6061229A34BC70603
:103320001229A3D8C7061229A30EC8061229A3651D
:10333000C8061229A3C9C8061229A3ECC806122977
:10334000A350C9061229A3ACC9061229A3E7C906CE
:103350001229A31CCA061229A32ECA061229A340A9
:10336000CA061229A378CA061229A3C4CA061229BA
:10337000A302CB061229A368DA061229A3A8DB064A
:103380001229A3CBDB061229A3DCDB061229A3D169
:10339000DD061229A3F1DD061229A384FD041229FA
:1033A000A3BAFD041229A302FE041229A35EFF049E
:1033B0001229A3E1E9021229A312EB021229A34C5C
:1033C000EB021229A30BED021229A335ED021229FB
:1033D000A3C2EF021229A302F0021229A399F1025B
:1033E0001229A32CF2021229A384F2021229A32784
:1033F000F3021229A35FF3021229A3A1F3021229F7
:10340000A310F5021229A362F6021229A385F8027D
:103410001229A3B3F8021229A3DAF8021229A3E3AE
:10342000F8021229A33AF9021229A3CCF9021229AF
:10343000A3BAFC021229A33DFD021229A345940759
:103440001229A35B94071229A3C6E7061229A3DC5D
:10345000E7061229A381E8061229A3C0E80612296B
:10346000A3DDE8061229A30EE9061229A35BE906EB
:103470001229A38EE9061229A3C9E9061229A3B5C8
:10348000EB061229A3958D071229A3F48D071229A3
:10349000A33F8E071229A3AD8E071229A31F8F0702
:1034A0001229A35D8F071229A39E8F071229A369F2
:1034B000AE061229A36FAE061229A3B0AE061229DA
:1034C000A3A2B0061229A3D2B0061229A341B106C5
:1034D0001229A30FB2061229A350B2061229A37E05
:1034E000B2061229A308B3061229A31FB306122994
:1034F000A32CB3061229A336B3061229A3D2B4060D
:103500001229A3E2B5061229A32BB6061229A3D7C6
:10351000F6011229A3EDF6011229A380F701122961
:10352000A3ACF8011229A3A1F9011229A33EFA01C3
:103530001229A37EFA011229A3FCFA011229A35928
:10354000FB011229A369FB011229A390FB01122997
:10355000A3E3FB011229A354FD011229A359FD0184
:103560001229A379FD011229A30080051229A33293
:1035700080051229A3CB80051229A32482051229D4
:10358000A30B83051229A3D684051229A3F284056F
:103590001229A34185051229A3C385051229A31960
:1035A00086051229A32C86051229A39086051229C7
:1035B000A3EB86051229A39B87051229A38C8805F6
:1035C0001229A3C788051229A34D89051229A33DF5
:1035D0008B051229A3FE8B051229A3258D0512291F
:1035E000A3A28D051229A3618E051229A3E68E05DB
:1035F0001229A3328F051229A34C8F051229A395F6
:103600008F051229A3AB8F051229A36190051229FA
:10361000A38791051229A39291051229A3F9910577
:103620001229A34C92051229A3AA92051229A3A636
:1036300093051229A34996051229A3689605122914
:10364000A37997051229A39D97051229A31398051D
:103650001229A3D398051229A30A99051229A37C3C
:1036600099051229A39C9A051229A3CC9A0512291F
:10367000A3DF9A051229A3E29A051229A3EB9A0562
:103680001229A3FD9A051229A3779B051229A3AD40
:103690009B051229A3C09B051229A3EC9B051229A7
:1036A000A3139C051229A3379C051229A3E59C05A9
:1036B0001229A3579D051229A38E9D051229A398AF
:1036C0009D051229A3CF9D051229A3E59D05122969
:1036D000A3029E051229A3309E051229A3469E052A
:1036E0001229A35E9E051229A3709E051229A3C26A
:1036F00090071229A3D390071229A35491071229E6
:10370000A3FB7F001229A3A4BD061229A3F3BD06C3
:103710001229A393BF061229A367C1061229A3A9E0
:10372000C1061229A374C2061229A37CC30612295A
:10373000A39EC3061229A3FAC3061229A37BC406BB
:103740001229A3E950001229A30B51001229A39EAC
:1037500052001229A3E752001229A35B5300122939
:10376000A3D853001229A33D54001229A3405400AA
:103770001229A38254001229A3F154001229A3A0F4
:1037800055001229A3A355001229A3185600122987
:10379000A35B56001229A3515A001229A3BC5B0057
:1037A0001229A3FA5B001229A3505C001229A396E8
:1037B0005F001229A31360001229A3C1610012291E
:1037C000A3F162001229A32764001229A3A16400B7
:1037D0001229A3C465001229A36966001229A37DDA
:1037E00066001229A34B67001229A37468001229EE
:1037F000A38D6A001229A3676C001229A3F86C003C
:103800001229A30670001229A3A770001229A396FB
:1038100071001229A3E574001229A3F5740012297E
:10382000A37376001229A30477001229A30178005C
:103830001229A39879001229A3327A001229A357DA
:103840007B001229A3A17B001229A3617C0012290D
:10385000A3A39E051229A3439F051229A3AD9F058B
:103860001229A3C69F051229A35DA0051229A3A1B1
:10387000A0051229A3C3A1051229A3FFA10512299E
:10388000A37BA2051229A3C6A2051229A325A3057D
:103890001229A335A4051229A355A7051229A37639
:1038A000A8051229A3F1A8051229A3D8AA0512294F
:1038B000A378AB051229A31FAC051229A382AC057E
:1038C0001229A3F7AC051229A306AE051229A3DA23
:1038D000AE051229A310AF051229A33FAF05122987
:1038E000A3F3AF051229A31FB0051229A39FB005AA
:1038F0001229A31FB2051229A3ABB3051229A3F302
:10390000B4051229A35EB6051229A36AB7051229C8
:10391000A30DB8051229A386B8051229A3B4B905C9
:103920001229A3C1BA041229A324BB041229A36C2F
:10393000BB041229A3B0BB041229A31ABC04122988
:10394000A363BC041229A39BBC041229A335BD04A4
:103950001229A38FBD041229A3DCBE041229A3657A
:10396000BF041229A38CBF041229A396C0041229F4
:10397000A381C1041229A3CEC1041229A3CDC2047C
:103980001229A3F5C2041229A33EC4041229A34F8D
:10399000C4041229A367C4041229A350C504122920
:1039A000A336C6041229A33FC7041229A369C7047A
:1039B0001229A381C7041229A39BC7041229A3D2E9
:1039C000C7041229A3F2C7041229A319C804122993
:1039D000A330C8041229A30CC9041229A364C90482
:1039E0001229A30DCC041229A33CCD041229A372E1
:1039F000CD041229A37CCD041229A393CD0412294E
:103A0000A300CE041229A3E9CE041229A31FCF04D8
:103A10001229A3F0CF041229A391D0041229A3BF25
:103A2000D0041229A3CCD1041229A3EBD10412296A
:103A3000A36ED2041229A3DFD2041229A323D30434
:103A40001229A3A7D3041229A304D4041229A3B1D1
:103A5000D4041229A397D6041229A377D7041229D4
:103A6000A3CDD7041229A32BD9041229A350DB0418
:103A70001229A3FADD041229A3A4DF041229A374D6
:103A8000E0041229A3ECE0041229A30EE104122998
:103A9000A3FDE1041229A3EDE2041229A358E304D3
:103AA0001229A3B8EF061229A35DF1061229A32358
:103AB000F2061229A387F2061229A3FBF2061229A5
:103AC000A3C2E3061229A3E0E3061229A324E40615
:103AD0001229A34AE4061229A370E4061229A38836
:103AE000E4061229A3A0E4061229A30BE506122975
:103AF000A34DE5061229A362E5061229A369E6068D
:103B00001229A386F8041229A38DE6061229A3968A
:103B1000E6061229A39FE6061229A3A9E6061229A2
:103B2000A3CAE6061229A347E7061229A37FD506F2
:103B30001229A3E0D9061229A3FCD9061229A30150
:103B4000DA061229A3A285071229A38FF3061229E8
:103B5000A3A5F3061229A32BF5061229A374F506D3
:103B60001229A3E0F5061229A37EE1051229A3027A
:103B7000F7061229A314F7061229A3E889071229C8
:103B8000A3A082071229A3FC82071229A33C830762
:103B90001229A3A583071229A3C983071229A3DE2B
:103BA00083071229A3FE83071229A31E8407122963
:103BB000A32E84071229A34584071229A371840721
:103BC0001229A30185071229A3CEFF031229A300FE
:103BD00080031229A33280031229A39E8003122995
:103BE000A33981031229A3D881031229A31D8203BB
:103BF0001229A33F82031229A35882031229A37E0C
:103C000082031229A3A082031229A3DE82031229B0
:103C1000A32283031229A34483031229A3A68303A7
:103C20001229A36D84031229A32485031229A396C4
:103C300085031229A36886031229A3B286031229D9
:103C4000A30587031229A36B87031229A3A5870362
:103C50001229A3F787031229A31388031229A33E6D
:103C600088031229A3458A031229A3998B031229D9
:103C7000A3BB8B031229A3EF8B031229A3108C0380
:103C80001229A31F8C031229A32A8C031229A3DA59
:103C90008C031229A3438D031229A3F08D0312294B
:103CA000A3288E031229A3EE8E031229A3FB8F03F0
:103CB0001229A34590031229A3D490031229A338F3
:103CC00091031229A37391031229A3DF93031229ED
:103CD000A33395031229A36C98031229A3399903DE
:103CE0001229A3C799031229A3DB99031229A3045C
:103CF0009A031229A3769A031229A30A9B03122975
:103D0000A37A9B031229A3629C031229A3849C0318
:103D10001229A3EA9D031229A3039E031229A316C5
:103D20009E031229A3739E031229A3829E031229C4
:103D3000A30B9F031229A3219F031229A32DA003E4
:103D40001229A33AA0031229A343A0031229A31BFB
:103D5000A2031229A34BA3031229A35BA3031229D5
:103D6000A36AA4031229A3E1A4031229A31AA50399
:103D70001229A34AA6031229A390A6031229A35C21
:103D8000A8031229A334AC031229A348AC031229B7
:103D9000A352AC031229A35CAC031229A366AC03A3
:103DA0001229A370AC031229A389AC031229A3938F
:103DB000AC031229A311AD031229A31CAD031229D0
:103DC000A349AD031229A36EAD031229A379AD0354
:103DD0001229A3C7AD031229A3D1AD031229A3DC75
:103DE000AD031229A300AE031229A324AE031229A6
:103DF000A380AE031229A3C6AE031229A3E3AE0328
:103E00001229A360AF031229A397AF031229A3D6E7
:103E1000AF031229A323B0031229A3A5B0031229CB
:103E2000A33EB1031229A30EB3031229A36CB3035B
:103E30001229A388B4031229A3AEB4031229A3ED57
:103E4000B5031229A313B9031229A354BB031229E2
:103E5000A330BD031229A3C6BD031229A3EDBF03DE
:103E60001229A399C0031229A3CEC0031229A33398
:103E7000C1031229A33DC1031229A367C303122959
:103E8000A355C4031229A39EC5031229A3DEC503AB
:103E90001229A384C6031229A315C8031229A39EBD
:103EA000C9031229A3BEC9031229A317CA031229E1
:103EB000A319CB031229A363CB031229A3B3CB030A
:103EC0001229A39DCC031229A312CD031229A32CDE
:103ED000CE031229A3A7CE031229A3ACCF03122924
:103EE000A357D2031229A376D2031229A3D7D3034F
:103EF0001229A399D5031229A3EDD5031229A3A54D
:103F0000D6031229A354D7031229A3B4D703122925
:103F1000A36AD8031229A3FFD8031229A36BD903DC
:103F20001229A3A5D9031229A3D6D9031229A33292
:103F3000DB031229A30080021229A3328002122976
:103F4000A36980021229A35082021229A39082023F
:103F50001229A37383021229A3CB83021229A30679
:103F600085021229A35285021229A37A88021229F6
:103F7000A3E68B021229A3338D021229A3C98D0255
:103F80001229A3D58D021229A3078E021229A38913
:103F90008F021229A39790021229A3C1900212291D
:103FA000A31891021229A37191021229A3DD910293
:103FB0001229A3F493021229A38395021229A34D77
:103FC00096021229A38B97021229A3BB99021229E8
:103FD000A38B9C021229A3989C021229A31F9D0265
:103FE0001229A3C79D021229A30A9E021229A353D4
:103FF0009E021229A3A79E021229A30C9F02122936
:10400000A3749F021229A3919F021229A3C19F02A8
:104010001229A3F69F021229A3C6A0021229A36F98
:10402000A1021229A3F3A3021229A313A5021229A4
:10403000A3FCA5021229A37EA6021229A3A0AA020C
:104040001229A3DDAA021229A335AB021229A36803
:10405000AB021229A3E9AB021229A336AC02122942
:10406000A3C1AC021229A313AD021229A3EAAD0227
:104070001229A3A3AE021229A33EAF021229A3570D
:10408000B2021229A377B3021229A328B702122978
:10409000A346B8021229A349B8021229A378B8028C
:1040A0001229A37EBA021229A357BB021229A38C9C
:1040B000BB021229A394BC021229A34ABD021229F1
:1040C000A3F0BE021229A354BF021229A379BF0292
:1040D0001229A3B8BF021229A3F9BF021229A3D142
:1040E000C0021229A3AFC1021229A3DCC102122906
:1040F000A3A9C2021229A3DFC4021229A350C50238
:104100001229A390C5021229A3C9C5021229A35DD1
:10411000C6021229A3A6C7021229A369CB0212293B
:10412000A358CC021229A33FCD021229A3B7CD0276
:104130001229A379CE021229A32FD0021229A3B7E4
:10414000D0021229A3CCD1021229A3DDD102122957
:10415000A3F5D1021229A306D2021229A31AD20270
:104160001229A352D2021229A380D2021229A30734
:10417000D4021229A3D9D4021229A360D50212298C
:10418000A39BD5021229A3F9D5021229A340D60276
:104190001229A305D8021229A3B7D8021229A3E72E
:1041A000D8021229A3CBD9021229A37CDA02122940
:1041B000A337DC021229A3EEDC021229A323DD02BD
:1041C0001229A38BDD021229A3BADE021229A36CE5
:1041D000DF021229A39DDF021229A3B5DF021229F3
:1041E000A344E0021229A3F8E2021229A3D0E402B8
:1041F0001229A3ECE4021229A308E5021229A3D68E
:10420000E5021229A3BFE9021229A32DFC051229F8
:10421000A36DFC051229A320FE051229A32FFE057C
:104220001229A30FBB051229A326C0051229A371C9
:10423000C0051229A3C1C2051229A355C40512291C
:10424000A3E3C4051229A344C7051229A349C9053C
:104250001229A39DC9051229A3ACCB051229A3FFDE
:10426000CB051229A35ACC051229A37CCC0512290F
:10427000A383CC051229A39BCC051229A37BCD05D2
:104280001229A35ACE051229A3AE81011229A3F047
:1042900081011229A32687011229A37287011229FD
:1042A000A3B887011229A30789011229A3638901F1
:1042B0001229A3A889011229A33B8B011229A391DA
:1042C0008E011229A3B68F011229A3389B0112294E
:1042D000A3CB9B011229A3289F011229A367A00148
:1042E0001229A3C2A0011229A30AA2011229A3F62E
:1042F000A2011229A38DA5011229A3FCA60112294E
:10430000A383A7011229A386A7011229A3FBA70152
:104310001229A305A8011229A312A8011229A33D5D
:10432000A8011229A3EDA8011229A3EAA9011229C3
:10433000A394AA011229A321AB011229A33FAB0127
:104340001229A358AB011229A381AB011229A3A3FF
:10435000AB011229A3E9AD011229A3CCAE011229A8
:10436000A312AF011229A391AF011229A33DB001FD
:104370001229A36FB0011229A3C1B0011229A3FD14
:10438000B0011229A33CB1011229A38CB101122959
:10439000A391B1011229A3E5B1011229A311B20120
:1043A0001229A3EDB2011229A33DB3011229A3AA38
:1043B000B3011229A304B4011229A39BB401122949
:1043C000A3E0B7011229A3F8B8011229A391BA01F9
:1043D0001229A3C4BD011229A356BE011229A34D5F
:1043E000C1011229A30CC2011229A350C201122932
:1043F000A3F5C3011229A309C4011229A313C401FF
:104400001229A31DC4011229A329C4011229A345FD
:10441000C4011229A3A5C6011229A3E4C6011229C9
:10442000A3EEC6011229A3F8C6011229A37EC70173
:104430001229A3D6C7011229A3F3C8011229A35731
:10444000C9011229A364CA011229A3A8CA01122909
:10445000A354CB011229A32DCC011229A3E8CC012E
:104460001229A3F5CD011229A32FCF011229A32CC4
:10447000D0011229A344D0011229A39BD0011229F3
:10448000A3A5D0011229A3AFD0011229A3BAD0014C
:104490001229A3D8D0011229A320D1011229A38265
:1044A000D1011229A3A9D1011229A3BBD10112293B
:1044B000A356D2011229A38BD2011229A38AD301B8
:1044C0001229A3D8D3011229A3D2D4011229A308F7
:1044D000D5011229A38BD5011229A3FCD5011229DC
:1044E000A3A8D7011229A3D2D8011229A395D901D3
:1044F0001229A366DA011229A3D1DA011229A34EE7
:10450000DB011229A37BDC011229A30FDD01122993
:10451000A35FDD011229A3CADD011229A390DE01E8
:104520001229A3DADE011229A332DF011229A30A1C
:10453000E0011229A32DE0011229A3F0E0011229C4
:10454000A312E1011229A37BE1011229A391E30146
:104550001229A381E4011229A34BE5011229A383A7
:10456000E7011229A3CDE7011229A31DE8011229B1
:10457000A38AE8011229A3ECE8011229A31AE90190
:104580001229A33EE9011229A373E9011229A3A468
:10459000E9011229A3D7E9011229A331EA0112295D
:1045A000A384EA011229A3B0EB011229A35DED0156
:1045B0001229A3ABED011229A3D4ED011229A360A6
:1045C000EE011229A3D5EE011229A3E3EE0112296F
:1045D000A307EF011229A364EF011229A383EF01BE
:1045E0001229A339F0011229A371F0011229A3B4F1
:1045F000F0011229A317F1011229A309F3011229CD
:10460000A333F3011229A337F4011229A349F501B9
:104610001229A3F9F5011229A3E999061229A32168
:104620009A061229A3429A061229A3849A061229ED
:10463000A3E69A061229A3F09A061229A3009B0664
:104640001229A33B9B061229A31B9F061229A3082C
:10465000A1061229A3EEA2061229A385A3061229F8
:10466000A327A4061229A39680041229A34181043A
:104670001229A3EF81041229A3F582041229A3159C
:1046800083041229A33E84041229A3F98504122964
:10469000A36C86041229A31087041229A31C880482
:1046A0001229A38788041229A3C388041229A30608
:1046B00089041229A34189041229A3838904122998
:1046C000A3188A041229A3948A041229A35E8B04D6
:1046D0001229A33B8C041229A3D38C041229A3ED25
:1046E0008C041229A31D8D041229A34E8D041229B6
:1046F000A3148E041229A3248E041229A3738E04FA
:104700001229A3808E041229A3898E041229A307DB
:104710008F041229A3638F041229A3AE8F041229D8
:10472000A3C98F041229A3F48F041229A3119004A2
:104730001229A31D90041229A3B491041229A3CD18
:1047400091041229A35292041229A36592041229FA
:10475000A38492041229A32893041229A3A99404E0
:104760001229A35C96041229A3F296041229A3F538
:1047700096041229A36597041229A383970412298A
:10478000A31A98041229A36298041229A365980415
:104790001229A32B99041229A39899041229A3BEC4
:1047A00099041229A3499A041229A3679A04122989
:1047B000A3AD9A041229A3619B041229A3AB9B0405
:1047C0001229A3DA9B041229A3379C041229A36C93
:1047D0009C041229A3989C041229A3A69C041229C4
:1047E000A3F39C041229A3639D041229A3AC9D0486
:1047F0001229A3F89D041229A3249E041229A32F91
:104800009E041229A34D9E041229A3389F04122945
:10481000A3429F041229A37D9F041229A38D9F0404
:104820001229A3969F041229A3EA9F041229A3FE2A
:104830009F041229A32DA1041229A340A104122927
:10484000A355A1041229A3E3A1041229A328A204B9
:104850001229A3B4A2041229A3BFA2041229A301FE
:10486000A4041229A31CA4041229A368A4041229D5
:10487000A3D7A4041229A310A5041229A32AA504CE
:104880001229A38AA5041229A329A6041229A37414
:10489000A6041229A344A9041229A3F6A9041229E3
:1048A000A363AA041229A3A3AC041229A3BBAC04DA
:1048B0001229A3BEAC041229A3CAAC041229A3DE98
:1048C000AC041229A3E6AC041229A319AD041229E1
:1048D000A31CAE041229A3A9AE041229A319AF0484
:1048E0001229A39BAF041229A35CB0041229A37B55
:1048F000B0041229A31CB1041229A379B10412290E
:10490000A37CB1041229A3F0B1041229A33FB3047C
:104910001229A345B4041229A3D0B4041229A3EB8D
:10492000B5041229A3B3B6041229A3E4B6041229CC
:10493000A307B7041229A310B7041229A33FB70491
:104940001229A3CFB7041229A385B8041229A3FA08
:10495000B8041229A3A1B9041229A316BA04122972
:10496000A34DBA041229A38BBA041229A3BEF604DC
:104970001229A307F6041229A3D4F5041229A38946
:10498000F5041229A324F5041229A3E3F40412293F
:10499000A3C3F4041229A3F5F3041229A382F30498
:1049A0001229A320F3041229A3C3F2041229A33667
:1049B000F1041229A3D3F0041229A327F004122929
:1049C000A31EF0041229A312F0041229A3DFEF049E
:1049D0001229A390EC041229A362EC041229A3FD6E
:1049E000EB041229A3EAEB041229A3DFEB0412293A
:1049F000A3A3EB041229A3D1E9041229A302E10520
:104A00001229A3BAE9041229A3F5FC041229A3AAC6
:104A1000FC041229A33EFC041229A3DBFB04122987
:104A2000A3B1FB041229A335FB041229A3F0E80467
:104A30001229A34DE8041229A371E6041229A389BF
:104A4000F9041229A313E5041229A308E504122985
:104A5000A380E4041229A317E4041229A3D3F606C1
:104A60001229A3F3E3041229A332F9041229A3DDC6
:104A70008C061229A3968C061229A3358C061229BE
:104A8000A3008C061229A3D58B061229A3A18B069D
:104A90001229A3798B061229A3FC8A061229A3E600
:104AA0008A061229A3B68A061229A32C8A0612297D
:104AB000A36B86061229A32984061229A3D781068F
:104AC0001229A35F81061229A31081061229A300CF
:104AD00080061229A39D80061229A35E8006122952
:104AE000A384E60600000080FBE4738F000100E071
:104AF0001E87000100D51A35000400A31E25000200
:104B000000A71E26000200A91E27000200AB1E28D7
:104B1000000100B51E29000100B61E84000400AE8D
:104B20001A860001004D1E2A000100B71E2B00014D
:104B300000B81E2C000100BE1E2D000800BC1A2E5D
:104B4000000100BF1E2F000100C01E30000100C187
:104B50001E31000100C21E32000100C31E330001DD
:104B600000C41E34000100C51E36000100C41A38FE
:104B7000000100C61E39000100BD1E83000200DDD9
:104B80001E63000100D01A64000100B91E65000117
:104B900000BA1E6D000100D11A71000800B41A6637
:104BA000000100DC1E43000100CD1E44000200CEC7
:104BB0001E45000100D01E46000200D11E4700081D
:104BC00000C81A48000100D31E4B000100D41E0487
:104BD000000100DF1EA1000100E31E37000100E21A
:104BE0001E88000100E11E3C000100C51A3D0001C5
:104BF00000C71E49000200D51E67000100D21A4DF1
:104C0000000200D71E4E000100D91E4F000200DA3C
:104C10001E3E000100C71A51000100C91E520001CA
:104C200000CA1E53000100CC1E54000100C61A0029
:104C30000000000000000136360101000102010001
:104C4000010301000104010606050200000701003E
:104C5000340801000F090401010D0100FF0E0800D6
:104C60000017020000190100FF1A0100011B0100DA
:104C7000FE1C0100081D0200001F010001200100B0
:104C800001210200002301000F2402000026010080
:104C90000127010008280200FF2A0100072B01025A
:104CA000402C0100002D0100012E0100012F010008
:104CB000FF30010B1D310800003A0100083B0100E4
:104CC0000F3C0100013D0100FF3E040000420400D2
:104CD00000460400004A0400004E04000052040094
:104CE00000560400005A040000010371030103018F
:104CF0000301030103010322030203010310030064
:104D00000300030003000300030003000342030049
:104D100003240306030003000304031203250323F3
:104D200003250323030403040300030003000344D7
:104D300003000300032303000365032100350381FF
:104D400003000305030003000300030003250323FE
:104D500003030271023001600211027002010202BB
:104D60000202028002100261023A004100630273F3
:104D700002720262024302000213023800000200C3
:104D800002040212020002000200020002040204F5
:104D900002370037003C02440200023900000200E2
:104DA00002650200023502810200020502820283CE
:104DB0000200020300710030016000110070003138
:104DC0000220035004800010006100000014006302
:104DD0000073007200620043000000130006000030
:104DE00000000004001200000000000000000004A9
:104DF000000400370037003C0244000000000000BF
:104E00000000006500000035008100000005000082
:104E10000083000000010171010101010111010184
:104E2000013101010101018001100161013B001408
:104E30000063017301720162014301000113010665
:104E4000013D0135000401120100010001000100D3
:104E50000104010401330133013C014401320136F4
:104E6000000001000165010001350081010001051C
:104E70000182018301000103047104020460041132
:104E8000047004020402040104020410046104001A
:104E900004140463047304720462044304000413DE
:104EA00004060400040004040412040004000400C6
:104EB00004000451046400000400040004440400DD
:104EC0000400040004000465040004350481046443
:104ED00000050400048304000436000100060000FD
:104EE000000F0000000000000000000000000003B0
:104EF000FFFF00000403FFFF0000FFFF0FF40100AD
:104F000005C4040320000100000B000000000000A5
:104F1000000003010F00000000000000000000007E
:104F20000000000000000000000000000000000081
:104F3000000000000000001300E8371F00EE371FDC
:104F400080F437000090380100903802006A370280
:104F5000806437030070370400763704807C37059F
:104F600000823706008E373000AC373100A637326A
:104F700000B8373300BE373500C4373400CA37367F
:104F800000D0371100DC371400E2371500A037FFDE
:104F9000FF00000A000000020000000400000008FA
:104FA0000000001000000020000000400000008011
:104FB00000000000010000000200000004000000EA
:104FC0000800000010000000200000004000000168
:104FD000CE4206FE4208F8420B1C4310E43E0A2E65
:104FE0004302D44205EC4207DA420CB6420DC242FB
:104FF00064B03CFF000007ECFDFDFDECDCDCCCBC4C
:10500000ACAC9C9C8C7C7C6C6C5C5C5C4C4C3C3C90
:105010002C2C1C1C00160F00000B150B020002228A
:105020000F3300000E0F0000000000000000000021
:105030000000000000005A6967426565416C6C69B8
:10504000616E63653039D0D1D2D3D4D5D6D7D8D913
:10505000DADBDCDDDEDF150AF4D4C0A595827263ED
:105060006155504900034D4C4651181A2505020060
:1050700001191618161618230300303016181920B7
:10508000231A1C1E30003C40423A3F3F392F473024
:10509000303017181921301B1D1F300C0E020B0465
:1050A0000B0A0708000F02040201010101090200B6
:1050B000BE040AE8030000F6FBF64F0C00280000CF
:1050C00000000056500E00E8037F001E1E0501FF81
:1050D00001040800280400020C0809033C0C030525
:1050E000080B0300FF0A0C0108C082C0839018CB94
:1050F000E4F0A3F07C037D1C7A397B181234A612ED
:105100003CE0123F32123CE602667674F2122456FC
:1051100074FE122A9CE9FF8A08EBFE8C09E97033C1
:1051200074026A701679081236D4E4F50AF50B7821
:105130000A1229C0780A1229C4805374016A6003D4
:1051400002527079081236D47B00EEFAF9123D5201
:1051500002526B74016F600874026F600302527038
:10516000EA600874036A600302520B124154E9605A
:105170005374036508604D1232FC8A0A8B0B780A5F
:105180001229C0750A01780A1229C4750A00780A22
:105190001229C4E509F50A780A1229C4EEF50A783D
:1051A0000A1229C490185312281F901E4DE0F97C52
:1051B000C87D1A901EDD12649D123D0A740A1229E0
:1051C000EE02526B79021236D4901E4DE0F990181F
:1051D00053122C6F123CF8E9F8901863E0A2E340F8
:1051E00010E9700D9018CFE004F0640470031252BF
:1051F0008C7403650870769018D0E0F9740129F07A
:10520000E9C39405406712528C806274016A706031
:1052100074016F790A702C1236D47A007B04901CCA
:10522000D4E0F912346AAA18AB19795012619112BC
:1052300061ACE812763E7900901C8712649D123DA5
:105240009A80441236D4901EB112281F7A007B2017
:10525000901858E0F912345E74041229EE901E4D35
:10526000E0F9901853122C6F123D34E9F8E86017FA
:105270009081A112281F7A017B00901858E0F91242
:10528000345E74041229EE7402027AD2901853E448
:10529000F0A374F8F0A374FFF0A37407F02274F67F
:1052A000122456E9FFEAFE7AD1F91233208A828B62
:1052B00083E5824583702A7A027B00123302EA4B2F
:1052C000700E7A107B00901858E0F9123344801465
:1052D0008A828B8374D1F0EFA3F0EEF912330E8043
:1052E00003EFA3F00254EC74F712245689089004DB
:1052F000011265BF901E99E0F47003A3E0F47030D2
:10530000900700E0901E99F0A3E4F080238E828F36
:1053100083126420600F8E828F83A3A312641DFA10
:10532000A90812374C8E828F8312619EE8FEE9FF36
:10533000EE4F70D9901E99E0F47003A3E0F4600A78
:10534000901E99E0FAA90812374C1243F4901823E2
:10535000125BF41243EE7F010226D174F012245640
:10536000890B8C0C7509007508007410122C9E12A4
:10537000619E7412122C9E12559A8047125424F585
:105380000EA3E0F50FAE08EE2EFEE433FFEA2EF595
:1053900082EB126A6B650E7004A3E0650F7019AEA4
:1053A00009EE2EFEE433FFEC2EF582ED3FF583E5AA
:1053B0000EF0A3E50FF00509050AE50AC3950C40B8
:1053C000BB0508E508C3950B5005750A0080EBA9DD
:1053D0000980007F080226D174F4122456890B7DBF
:1053E00000740C122C9E12619E80010DEDC3950B72
:1053F000502E750A008002050AE50AC39C50ECEDA8
:1054000025E0FEE433FFEA2EF582EB3F12760C1224
:10541000542465087004A3E0650970DB79018002FB
:1054200079008014AE0AEE2EFEE433FFE82EF582FA
:10543000E9125B91221229EE7F040226D10229A0F3
:1054400074F61224561254D67003A3E06D701775CB
:10545000086175091878081229C0EEFA1238967496
:10546000021229EE801A750802750980780812293F
:10547000C08A08890978081229C01254C41229EE7A
:10548000806A74F61224561254D67003A3E06D702D
:105490001775086E75091878081229C0EEFA1238C7
:1054A0009C74021229EE801A750803750980780829
:1054B0001229C08A08890978081229C01254C41216
:1054C00029EE8028EE240E125B8EFD7C8012671C74
:1054D0001238BA740422EAFEEBFF126731FCE43999
:1054E000FD901823E06C2274021229EE7F0202263E
:1054F000D174F612245674FE122A9C8A088B0985F0
:105500001882851983E4F0A3F012600D126865FB20
:10551000ECFA88828983A3A3E0F97F007E0060050E
:1055200074FF6970047E828045901823E06A7003DE
:10553000A3E06B701AAA18AB19124A96E9FA8518FB
:105540008285198312666370027E83EAFF801F9052
:105550001AD5E060046401700E123C68E960047EB4
:1055600089800B7E818007E0640270027E80125584
:1055700094EEF9AA08AB091238A2EF6014851882DC
:1055800085198312666360098518828519831270F4
:10559000A00254E7851882851983E0FCA3E0FD2270
:1055A0000229A074F2122456EAFEEBFF750800757A
:1055B000090012672DF50AE439F50B1243F4EA6588
:1055C0000A7003EB650B7012124A84E914F508792E
:1055D000017A977B18124A7E8003750980126A65EA
:1055E000F50C780C1229C4750C97750D18780C12EF
:1055F00029C078081229C4780A1229C0E509F508DB
:1056000078081229C412648C126A68F97A057B80C2
:105610001238A87407027AD274F6122456E9FF7E73
:105620000080308A828B83127614F8E4C8F9E5088A
:1056300028E439F509EE25E0F8E433F9EC28F582A1
:10564000ED39F583E508F0A3E509F0EA2402FA5004
:10565000010B0EEEC39F40CB0254EC74E8122456AB
:1056600074FE122A9C8A108B11750F008518828592
:105670001983E4F0A3F0F516F5171262EC35111258
:1056800077E4127C45FA8E828F83A3A3A3E0F9EA24
:10569000F508E439F509AA0AAB0B124490E9640154
:1056A000702B1274651229C4E4F508F50978081204
:1056B00029C078081229C4780A1229C07508807890
:1056C000081229C4125A331229EE025A1CAA0AAB34
:1056D0000B124490E97041901823E0650A7004A30E
:1056E000E0650B6033901AD5E0640270281274658F
:1056F0001229C4E4F508F50978081229C0780812BF
:1057000029C4780A1229C075088078081229C412A1
:105710005A331229EE025A1C8E828F83A3A3A3A3AD
:10572000E0F50BEE2405FE50010FE50B602A127B1D
:1057300029851882851983EAF0A3EB126A82E84969
:105740006016125594EEFAEFFBA90B1237888A0CFB
:105750008B0DAE0CAF0D8003750B00127B3F601AF2
:10576000127B298A168B17EA4B600FAC16AD17EE29
:10577000FAEFFBA90A1237888003750A009004012A
:1057800080508E828F83A3A3A3A3A3A3A3A3E4F03B
:10579000A3F0EEFAEFFB851482851583A3A3E0F84E
:1057A00012641DF912330E851282851383E0C0E066
:1057B000A80F749728F582E43418F583D0E0F0053B
:1057C0000FA2005007AA12AB131233AA85148285C8
:1057D0001583E0F514A3E0F515E5144515700302F3
:1057E000599A85148285158312642060DF8514829E
:1057F000851583A3A3A3A3A3A3A3A3E0A2E050CCF6
:10580000851482851583A3A3A3A3126663851482DE
:10581000851583A3A3601E126422FA790185148280
:10582000851583A3A3A3A3125A26124AE98A128BD1
:1058300013D2008010125A26A3A3A3A3E0F512A34B
:10584000E0F513C200E512451370030257C185123B
:1058500082851383A3E065087004A3E06509600FE7
:1058600074FF6508700474FF650960030257C18501
:105870001282851383A3A3A3A3A3A3A31228238522
:105880001282851383A3A3A3A3A3A3E0FC74021233
:105890002C9E12649DA90B12375E74021229EEE948
:1058A0007038851282851383A3A3A3A3A3A3A3A304
:1058B000A3A3122823851282851383A3A3A3A3A3E2
:1058C000A3A3A3A3E0FCAA16AB17A90A12375E7420
:1058D000021229EEE970030257C1E50A250BC33312
:1058E000240AFA7B001233028A0C8B0DAE0CAF0D2A
:1058F000EA4F70030257A78A828B8374D2126C5BC3
:105900008A828B83A3A3126FE5A3A3A3E50B127C6A
:1059100056E50B6033EA240AFAE43FFB8E828F835C
:10592000125BEF851882851983E0F50CA3E0F50D75
:10593000750E00780C1229BCAC0BEC2CFCE433FD8A
:10594000127C3F1229EE800D8A828B83A3A3A3A32E
:10595000A3E4F0A3F0E50A7003025782A80BE8283D
:10596000F8E433F9EE28F8EF39F9E8240AFAE439D3
:10597000FB8E828F83A3A3A3125BEF85160C851782
:105980000D750E00780C1229BCAC0AEC2CFCE4332B
:10599000FD127C3F1229EE025792E50F602512742A
:1059A000651229C475089775091878081229C0E589
:1059B0000FF50878081229C49018231228237508B7
:1059C00000802DE510240BF582E43511F583E0709D
:1059D0002A1274651229C475089775091878081277
:1059E00029C075080078081229C4901823122823AA
:1059F00078081229C4125A331229EE8518828519A3
:105A00008312666360098518828519831270A0E588
:105A10001645176007AA16AB171233AA740212298B
:105A2000EE7F100226D1125A2A22E0F8A3E0F58375
:105A3000888222E5102402FCE43511FDE510126491
:105A4000173511F583E0F97A067B801238A87407C0
:105A50002274F412245674F4122A9C8A088B09ECDE
:105A6000FEEDFF740B122C9E7403F0122A5E1234AA
:105A7000A61265B17403122A5E1234A0E9600A12FC
:105A80005B856010E06401600B8518828519837462
:105A900084025B4C8E828F83A3A3A3A3A3A3A3A39F
:105AA000E06013F46010125B857016EE2414126A25
:105AB000686003F4700B8518828519837482025B19
:105AC0004C1277D8E064217002A3E07055851882EB
:105AD000851983748C1261BBE0F50A780A1229C417
:105AE000125B9612404074011229EEE9705F85182E
:105AF00082851983E4F01236B0125B85704F740111
:105B0000122A66EE240BFAE43FFB12405EE9703D78
:105B10007D007C007900EE240BFAE43FFB12386034
:105B2000802BEE2414126A68F50A780A1229C4122E
:105B30005B9612404674011229EEE9851882851998
:105B4000837007E4F01236B080037488F01273EBB0
:105B5000F50A780A1229C47401122A56880A890B98
:105B6000780A1229C0E508240CF582E4350912618F
:105B7000B34480F50B780A1229C01265931229EEFE
:105B8000740C025435EE2413125B8E640322F582EA
:105B9000E43FF583E022EE240BFCE43FFD8E828F90
:105BA00083A3A3A3A3A3A3A3A3A31274228E828F70
:105BB00083A3A3A3A3A3A3A3A3E0F922C082C083CA
:105BC00074F3122A9C851882851983E4F004122C40
:105BD0009E125BF47403122C9EAA82AB83123BF0DC
:105BE000AA18AB19123C2C740D1229EE026676A38A
:105BF000A3A3A3A3EAF0A3EBF02274F6122456EABF
:105C0000FEEBFFEA2413126A68F8A3E0125C41F885
:105C1000901869E058F508A3E059F509E508450929
:105C2000601C78081229C0901823122823126A6574
:105C3000FD7C001267181238B474041229EE025465
:105C4000EC8882F583125C4922E0FAA3E0F9EA22AB
:105C500074EA12245674DB122A9C8A148B1575126E
:105C600000751300750A001262EC3515F583126495
:105C700022F50EAC18AD197A007B00799C123D6AB2
:105C8000901AD5E06004640170147A047900123C23
:105C900056EAF50A851882851983E02A8008851856
:105CA000828519837401F0E0F8E50EC39840030281
:105CB0005EA2E0C3950EF509C39404400375090381
:105CC000E50975F01AA4FAABF01233A48A128B130B
:105CD000EA4B7003025EA5750B00AE12AF13850E82
:105CE00008025D6A7C087D0079FFEE240AFAE43F31
:105CF000FB1232EA850C82850D83A3A3A3A3E07077
:105D00002D850C82850D8312666370091275E91268
:105D10005F49E48010125F26F0901C9AE014C0E006
:105D2000125F0DD0E0F0125F11125F588032901CAC
:105D30009AE004C0E0125F0DD0E0125F85C39403C7
:105D4000EE4003025DEB1276E27402125F8564019D
:105D50007003025DF8EE2415125F29125F3A740198
:105D6000F0EE241AFE50010F050BE50BC395094018
:105D700003025E57E508C3950A4003025E01AA08C4
:105D80007B00123C988A0C8B0D0508901C87125FD3
:105D90006B850C82850D83125F32F0A3E9125F5D83
:105DA000125F0D74FF125F8AA3A3A3A3A3A3E0C095
:105DB000E0125EFBD0E0F07401122C9EE4F0850C42
:105DC00082850D8312619E7402122C9EE812763E2B
:105DD0007401122A5E123C1AE964016003025CE459
:105DE0007404122C9E125F17025CF4125F27125F7C
:105DF0008564036003025D55EE24151275EC025DA7
:105E00005BE50AC3950E40057508008051E50EC399
:105E1000950AF5088048EE24151275EC125F58F0CB
:105E2000901C9AE014C0E0125F0DD0E0125F5D7428
:105E30001D122C9EE0C0E0125EFBD0E0F0125F0568
:105E400012666170051275E98003125F26F0EE2478
:105E50001AFE50010F050BE50BC395095047740E50
:105E6000122A66AA087B007987123D6A0508741811
:105E7000122C9E125F6B7410122C9E125F17740E00
:105E8000122C9E125F3212763E901AD5E0600464A6
:105E9000017083125F11125F3A7403125F4974FF3D
:105EA000808A750900750A00780A1229C4781212CE
:105EB00029C078091229C4E50EF50978091229C408
:105EC0007405122C9EE0FD7C00E51412640E35155D
:105ED000FBE5141264133515F583E0F91238F074FC
:105EE000051229EEE51245136007AA12AB1312330F
:105EF000AA74251229EE7F0E0226D1EE2419F5820E
:105F0000E43FF58322EE2412F582E43F22125F4E35
:105F100022127669740222AC82AD83EE240AFAE47E
:105F20003FFB1234A622EE2414F582E43FF583747D
:105F3000012212764B12765FE822125F3E22F0EECB
:105F40002416F582E43FF58322F0125F4E22EE2400
:105F500018F582E43FF58322125F3EE422F0EE243E
:105F600017F582E43FF5837402F02212764B8E829D
:105F70008F83E8F0A3E9F07C9B7D1CEE12640E3F5A
:105F8000FB1234A622125F8AE022F0850C82850D76
:105F900083A3A3A3A32274F612245674F9122A9C95
:105FA000126009127D08851882851983122C878E4C
:105FB000828F83A3A3A3A3E0C0E07404122C9ED01D
:105FC000E0127A7DF87405122C9E7401F0740612AA
:105FD0002C9E7401F090182DF0901836041276FE65
:105FE000FAA3E0FB90182E125BF4E8901837F01239
:105FF0007AA0E090182CF0AA18AB19123CFEE960C8
:1060000003123D0474070254E98A088B09127A16B8
:1060100035092274F212245674FF122A9C75080066
:106020007E007F0012430A8A0A8B0B12618580056D
:10603000050812619BE84970F7901AD5E060076483
:106040000160030260FB126185800312619BE849D5
:10605000602D8882898312649D901C87E06A70039A
:10606000A3E06B600A1261A212649DEA4B70DC88A7
:106070008289831261ACE0687003A3E069607C7A76
:10608000167B001279F96073901C8712619E8A82D8
:106090008B83E812763E901C7C126CF2F0124478EE
:1060A000E98E828F83A3A3A3A3A3F0901EB7E08EF3
:1060B000828F83A3A3A3A3A3A3F07C9B7D1CEE24C8
:1060C0000B125F1EAA18AB197941126191E06008AA
:1060D00090182312619E800478FE79FF8E828F8350
:1060E000A3A3A3A3A3A3A3E8F0A3E91261BBE50ABA
:1060F000F0A3E50BF08E0A8F0B0508901837E0F837
:10610000E508C398500479008029E508C398F9C3CD
:106110009406400279057800800FE50A2414F58280
:10612000E4350B1261B3F50B08901837E0FAE8C3B9
:106130009A40E775090078091229C4780A1229C023
:10614000E9F50978091229C4901837E0F5097809AA
:106150001229C4AD087C007A2E7B1890182CE0F927
:106160001238EA74051229EE901AD5E06004640131
:10617000700BEE4F6007EEFAEFFB1233AA123D04EC
:106180007401027AD212430A8A0C8B0DA80CA90D55
:1061900022123ACA851882851983221261A21276C8
:1061A0004B22E82414F582E439F5832212764B90D1
:1061B0001C8722F583E0F50AA3E022F0EE1276E6D2
:1061C0002274F012245674FF122A9C8A0A8B0B7ECA
:1061D000008E0E8E0F1262EC350BF583126422FFD7
:1061E000AC18AD197A007B00799D123D6A85188242
:1061F000851983E0F8EFC3984003026296E0C39FDD
:10620000FEC3940B40027E0AEE75F007A4FAABF0D1
:106210001264068A0E8B0FEA4B6079750C00801AA7
:10622000850882850983A3A3A3A3A37403F0E508CB
:106230002407F50850020509050CE50CC39E5056CD
:10624000AC08AD09E50C2FFAE43400FB798B123D64
:106250006A850882850983A3A3A3A3A3E014600829
:1062600014601314601F80B8850882850983A3A376
:10627000A3A3A3E480B7850882850983A3A3A3A36E
:10628000A3740180A8850882850983A3A3A3A3A37F
:10629000740280997E0075080078081229C4780E6F
:1062A0001229C0EEF50878081229C4EFF50878081D
:1062B0001229C47405122C9EE0FD7C00E50A1264CC
:1062C0000E350BFBE50A126413350BF583E0F9126A
:1062D00038F674051229EEE50E450F6007AA0EABDD
:1062E0000F1233AA74011229EE0253D3EA127A175D
:1062F0002274EE12245674FE122A9C8A0C8B0D75A1
:1063000010007511001262EC350DF583126422F550
:106310000AAC18AD197A007B0079A312404C85189D
:106320008285198312619EC3E50A98E499502085FD
:106330001882851983A80AE0C398FEA3E09400FFA1
:10634000C3EE9404EF940040617E037F00805F7E83
:1063500000750B00EEF975080078081229C4781052
:106360001229C0E9F50878081229C4E50AF5087869
:10637000081229C47405122C9EE0FDAC0BE50C122A
:10638000640E350DFBE50C126413350DF583E0F951
:106390001238FC74051229EEE51045116007AA10A9
:1063A000AB111233AA7402027B03EE4F60A3EEFA24
:1063B000EFFBEA75F015A4FAA8F075F015EBA42828
:1063C0001264058A108B11EA4B6032750B00750E52
:1063D00000C3E50E9EE49F4003026354AC08AD0980
:1063E000A80AE50E28FAE43400FB79A212404CE535
:1063F000082415F50850020509050E80D4750BB563
:106400007900026356FB1233A48A088B0922240206
:10641000FAE42212641722240FF582E422125A2C85
:10642000A3A3125A2AE02274F612245674FF122AE9
:106430009CEAFEEBFF12664F12649D8A82F583A3ED
:10644000A3A3A3A3A3A3A3E0F9123D22E985188285
:10645000851983F075080078081229C47401122A7E
:10646000568808890978081229C075083575098089
:1064700078081229C01264801229EE74010254E9CE
:10648000790112648CFAE43F1265AA22EE2402FC20
:10649000E43FFDEE240F22851882851983127422B1
:1064A0002274F412245674FA122A9C12600912659E
:1064B000BDEEFAEFFB123BF6E9600F1265B1EEFAA2
:1064C000EFFB1234A0E964017013901AD5E0700359
:1064D00002658E7401122C9EE4F0A38009740112EF
:1064E0002C9EEEF0A3EFF0901AD5E06402701785B1
:1064F0000882850983A3A3126A7BE0687003A3E086
:1065000069600302658E8E828F83A3A3A3A3A3A3D6
:10651000A3A3E0FEA2E650087403122C9E7401F0BF
:10652000EEA2E750087404122C9E7401F074051258
:106530002C9EE412686CF0F50A780A1229C47401E2
:10654000122A56880A890B780A1229C0750A3475EE
:106550000B80780A1229C01265931229EE9081559A
:10656000122C6F1244127A007B0012441E7A007BB8
:10657000001244187401122A5E123D58EEA2E74040
:106580000D7401122C9E12666370031249E27406A8
:106590000254357901E5082402FCE43509FDE508DB
:1065A000240FFAE435091265AA22FB123854740547
:1065B000221243EE8A0A8B0BAC0AAD0B22F5831232
:1065C0007987FF2274F612245674FF122A9CEAFE81
:1065D000EBFF901AD5E07011901EBCE0700B8A8220
:1065E0008B83A3A3126663706312664F126422F555
:1065F0000874FF650870037508FEA908123D10E9CC
:10660000851882851983F0124154E96005A90812A2
:1066100039C2901AD5E07005A9081239C2EE240BD0
:10662000126A68702775080078081229C47401126C
:106630002A568808890978081229C075083675090C
:106640008078081229C01264801229EE02647BEA65
:10665000126654222413F582E43FF58322F582E486
:1066600038F58312764BE84922C082C083901AD550
:10667000E070031239C8D083D0820229A074F412CA
:10668000245674EF122A9CEAFEEBFF12672DF508E0
:10669000E439F509901823E06A7003A3E0697052A9
:1066A000A818A919880A890B780A1229C0750A1135
:1066B000750B00780A1229C07C007D007A817B006E
:1066C00012342E74041229EEE97027750A00780A34
:1066D0001229C47401122A56880A890B780A1229D1
:1066E000C0AC08AD091267181238AE74031229EE57
:1066F0008021750A11750B80780A1229C07808125A
:1067000029C0126A65FD7C841267181238BA7404B5
:106710001229EE741102543512671C22EE2402FA7B
:10672000E43FFBEE1264173FF583E0F92212673174
