:020000040000FA
:10000000021F54022003FFFFFFFFFF02200BFFFF30
:10001000FFFFFF022013FFFFFFFFFF02201BFFFF78
:10002000FFFFFF022023FFFFFFFFFF02202BFFFF48
:10003000FFFFFF022033FFFFFFFFFF02203BFFFF18
:10004000FFFFFF022043FFFFFFFFFF02204BFFFFE8
:10005000FFFFFF022053FFFFFFFFFF02205BFFFFB8
:10006000FFFFFF022063FFFFFFFFFF02206BFFFF88
:10007000FFFFFF022073FFFFFFFFFF02207BFFFF58
:10008000FFFFFF022083FFFFFFFFFF02208BFFFF28
:10009000FFFF70DFFFFF040000000002000000C847
:1000A000030002030369A5020269A532730000017F
:1000B00000000000000400FFFFFFFFFFFFFFFF0440
:1000C00003090424035400650078006100730020D4
:1000D0000049006E0073007400720075006D0065C9
:1000E000006E007400730024035400490020004394
:1000F000004300320035003300310020005500532A
:10010000004200200043004400430000035F005F02
:100110000030005800000000000000000000000057
:1001200000000000000000000000000000000000CF
:100130000000000000303132333435363738394171
:100140004243444546481C9D1C9D1C9D1C9D1CA56E
:100150001C74F8121BE2900391E060159003027486
:10016000FEF0900304744DF0A37405F07A011207B9
:10017000237F01021D8174F8121BE274FF121ECB53
:100180007E00801F851882851983E064FE700690CA
:1001900003877401F0851882851983E0F890038441
:1001A000E068F07901AA18AB191210FEE970030299
:1001B0000287851882851983E064EF70027E07E06C
:1001C000C0E0900387E0FA900385E0F8EA28F8E4BD
:1001D0003400F9740228F582740339F583D0E0F015
:1001E000900387E0609E14600E14602B14603B1433
:1001F0006051146067809E900384E4F085188285C6
:100200001983E0900386F0C394809003874003E451
:1002100080827402020194851882851983E090031C
:1002200082F09003877403020194851882851983F4
:10023000E0900383F0900386E060199003877404D4
:10024000020194900385E004F0F8900386E0686072
:10025000030201959003877405020194900385E4DD
:10026000F0900387F0900384E0F885188285198365
:10027000E0686003020195900382E0644D60030230
:1002800001951203BF8002EEF97401121E4C0201A7
:100290007174F7121BE274FB121ECBEAFEEBFF75C2
:1002A00008047509007808121EE57402121F4C7AC2
:1002B000907B0079041219007402121E4C1207156B
:1002C000121F9DE0687003A3E06970128518828593
:1002D0001983E0F47003A3E0F4600302039A74044A
:1002E000121F441207778A088B09A808A90974020B
:1002F000121F9DE8F0A3E9F07404121F9DE060084E
:1003000079011201510203B3851882851983E068CF
:100310007003A3E0697076851882851983E0F47014
:1003200003A3E0F470197402121F9D7410F0A374FB
:1003300020F08518828519837410F0A37420F0755D
:1003400008017509007808121EE57402121F4C7A24
:10035000247B081219847402121E4C750804780854
:10036000121EE57402121F4C7A907B007904121958
:10037000007402121E4C120715121F9DE0687003D4
:10038000A3E069700479028006790480027903127F
:1003900001518E828F83741E80058E828F83E4F0DC
:1003A000120715121F9DE0687003A3E069700479BD
:1003B00001800279007405121E4C7F02021D8174B7
:1003C000E9121BE274F8121ECB900307E0FA9003C7
:1003D00006E0F9FEEAFCE4CCFDEE2CED3408FF75F6
:1003E0001001750F00750E068E088F0974027808CB
:1003F000121F31C39508FCE49509FD74022CF51415
:1004000074033DF515E5142497F516E5153420F52C
:1004100017EE2410F508E43FF509EEF50CEF540152
:10042000F50D8E128F1374097812121F6385120A4C
:10043000900383E0146057147003020506147003E0
:1004400002057D14601024FE700302063814700348
:100450000206E80206F8750E03794E1213D29003D5
:100460000712070B7402F0A37440120709740812F4
:100470000709F0A3F07418C3940704F510AA10A993
:100480000F120723A90E7408121E4C0208DD750E08
:1004900004794E1213D2EE450D7005A90A1219EA1D
:1004A000C3EE9425EF9408503FC3E5089424E50972
:1004B00094084034E5142496F8E5153420F9888230
:1004C0008983E0701E851682851783E0701590037E
:1004D000887401F08882898374A5F0851682851757
:1004E000838004900388E4F075081075090078088B
:1004F000121EE57C087D03EEFAEFFB1219847402EC
:10050000121E4C02047D750E05C3E50A947995E030
:100510004006750F0102047D7510407511007810BA
:10052000121EE57C097D037402780C121F31AA0C9F
:10053000AB0DA90A1219007402121E4C900307E0B9
:10054000A3F0900306E0A3F0751043C3EE9425EFEB
:100550009408400302047DC3E5089424E509940847
:10056000500302047D900388E0700302047DA81606
:10057000A91788828983E4F0A3F002047D7508043A
:100580007509007808121EE57402121F4C7A907BE0
:100590000079041219007402121E4C7402121F9D7D
:1005A000E0F8A3E0F9851882851983E0687003A359
:1005B000E069851882851983700BE0F47003A3E06D
:1005C000F470578009E0F47003A3E0F4700D85180F
:1005D000828519837410F0A37420F0120715121F7E
:1005E0009DE8F0A3E9F07508017808121EE5740291
:1005F000121F4C7A247B081219847402121E4C7547
:1006000008047808121EE57402121F4C7A907B00D1
:1006100079041219007402121E4C120715121F9D44
:10062000E0687003A3E0697006750E0102047D7531
:100630000E02750F0702047D9003D6E06007640286
:10064000600302047DEAFF7A017900120723E0606B
:10065000030206DC800312119A121181E970F7740B
:1006600004121F9D1206FD7404121F9D7808121FAC
:100670008185080C85090D850A0E850B0F9003C234
:10068000780C121F0B7404121F9D780C121F72E558
:10069000084509450A450B70CE8EC2E5C554E04FAA
:1006A000F5C57404121F9D1206FD7404121F9D7877
:1006B00008121F8185080C85090D850A0E850B0F10
:1006C0009003C2780C121F0B7404121F9D780C1239
:1006D0001F72E5084509450A450B70CE7A0179007D
:1006E0001207237908020486E9900391F07003024F
:1006F000047D750E0902047D7906020486E4F0A3E8
:100700007426F0A3E4F0A3F022F0A3E4F0A3F0A396
:10071000F0A3F0A322851882851983E0F8A3E0F9FD
:1007200074022274F8121BE2EAFE900305E0D2E79D
:10073000F0E9A3F0EE900303F08E0874042AFE7C27
:10074000028004E062080CECFA3395E0FB74022AA4
:10075000F58274033BF583EEF8C3EA98EB9400A2AC
:10076000D265D03340DDE508F074012AF97A027BC6
:100770000312113C02017174E9121BE275820075CB
:1007800083FE121E2E8A168B177514007515008AAB
:10079000828B83E4F09003D6E07006D2AAD2AF80B9
:1007A00004640270057900120151750C00750D206A
:1007B000750E00750F009003D6E06004640270159A
:1007C00012119A120176E9F874096860030208B3FD
:1007D0007900120151E064027007A29240030208FE
:1007E0008E7508007509027808121EE57402121F42
:1007F0004C850C08850D09AA08E5095407FB850EF0
:100800000A850F0B740B7808121E9CA90812190098
:100810007402121E4C7E007F009003CAC0828E10AC
:10082000EFF5113395E0F512F513850C08850D09E8
:10083000850E0A850F0B78087910121F1E9003C6CB
:100840007808121F0B758303D0827808121E0F5090
:100850001D851882851983E5822EF582E5833FF593
:1008600083E0F9AA14AB151208E28A148B150EEE78
:1008700070010FC3EF940240A09003CE780C121FBA
:100880000B9003D2780C121E0F40030207B67900BA
:10089000AA14AB151208E279001208E28B15900336
:1008A000D6E07004C2AFC2AAEA451570277AA57BCC
:1008B000A58021E870030207D5740668700302075B
:1008C000D574076870030207D5851682851783746F
:1008D00001F080BA758200758302121E2E7F10020D
:1008E0001D81C008C0097C088A088B09740F78082C
:1008F000121F63E508F8EA25E0FAEB33FBE9A2E70B
:10090000500474014AFAE8A2E0500874216AFA74AB
:10091000106BFBE9C333F91CEC70CDD009D0082271
:10092000C082C083120F4860030209F2A3E0F8A35B
:10093000E060030209F2A3E064027002A3E0600336
:100940000209F29003B8E02480600914604C14603E
:10095000590209F2E860030209F29003B2E0900341
:10096000C060077401F0A3E48003E4F0A3F09003F7
:10097000B1E060079003C0E04402F09003A6E06499
:100980000460149003B374C0F0A37403F0A3E4F004
:10099000A37402120FAAF0020E8390039FE0640476
:1009A00070509003C0E4F0A380D0E8547FFA900325
:1009B0009FE06404703CEAC394065036749F2AF5A5
:1009C00082E43403F583E85480600EA3A3A3A3A3B9
:1009D000A3A3E0640370CB800FE582240CF5825062
:1009E000020583E0640370BA9003C07401F0A3E4CD
:1009F00080889003A67404809D74F8121BE2E9FEBF
:100A00009003BE120F4B6003020ADB90039FE06469
:100A100004600B9003BC120F4B6003020ADB9003CF
:100A2000B8E0541F6009146030146020020ADB90A3
:100A300003BAE064017022EE9003B1F0600479051E
:100A4000800279067A00121BE0020AE19003BCE002
:100A5000547FFA9003BAE060057900020AE3EAC322
:100A600094065077EA90620EF0749F2AF8E43403FB
:100A7000F99003BCE05480602EEE60047410800294
:100A80007440906211F0EE60047B0380027B00EB07
:100A900088828983A3A3A3A3A3A3A3F0EE60047910
:100AA00008802F7907802BEE60047B2080027B80FA
:100AB000EB906214F0EE60047B0380027B00E8247C
:100AC0000CF582E439F583EBF0EE6004790A8002DC
:100AD0007909121BE090620EE480059003A674046D
:100AE000F079017F01021D8179001209F9E9700393
:100AF000121BCF2279011209F9E97003121BDE22C1
:100B0000C082C0839003BC120F4B7015A3120F4B11
:100B1000700F9003BA120CEE5480FAE9FBEA4B60B6
:100B2000079003A67404801AE8906200F090039F77
:100B30006009E06402700C74038007E064037003D2
:100B40007402F0020E8374F1121BE29003BAE0FC0F
:100B5000A3E0FBE4CBFA14600814601014603B803F
:100B600059121769120CD5A37B808043ECFA7900E7
:100B700012178B120CD57B80E92402F9E43AFA12A1
:100B80001E82FC1919E0FAA3E92403F9E43AFA12E7
:100B90001E82F9ECA3F0A3E9801CECF91217F9907E
:100BA00003B3EAF0A3EBF0A3E4120CE4A37B00127E
:100BB0001E82A3F0A3E4F0020C8F9003B3E4F0A331
:100BC000F0A3F0750B009003BCE0F50CA3E0F50D6D
:100BD00090047DE0FEA3E0FF020C6A8B09740378A9
:100BE00008121F31EE2508F8EF3509F9880E8882C2
:100BF000F583E493F8EA687001E4706CA3E493F879
:100C0000EC687001E47061850E828983A3A3E4938C
:100C1000F508E50D65087001E4704D850E82898345
:100C2000A3A3A3E493F8E50C687001E4703A850E81
:100C3000828983A3A3A3A3E493F508740193F50920
:100C40009003B3E508F0A3E509F0A37480F0850EE6
:100C5000828983A3A3A3A3A3A3E493F8740193F9C4
:100C60009003B6E8F0A3E9F0050B850B0890047F2C
:100C7000120CEEC39EF50EE99FF50F7403780E1269
:100C80001F63C3E508950EE4950F5003020BDB903C
:100C900003B3E0FCA3E0FDA3E0FEEC4D4E9003A601
:100CA000700474048029E0640460259003BEE0FAB7
:100CB000A3E0FB9003B6E0F8A3E0F9C3EA98EB9950
:100CC00050089003B6EAF0A3EBF09003A67401F08D
:100CD0007F08021D819003B3EAF0A3EBF0A37480B8
:100CE000120CE422F09003B3E0F9A3E0FA22E0F85A
:100CF000A3E0F9E82274EE121BE2EA2404F8E43BD4
:100D0000F9880889098882F583E493602590048135
:100D1000120CEEFEE9FF8007EE2404FE50010F8E58
:100D2000828F83E493F8740193F9EA687002EB69A7
:100D300070E6750B00803F9062147490F07410128E
:100D40000E4A7003750A408E828F83A3A3A3E49397
:100D5000550E6006E50AD2E0F50AE50A906215F044
:100D6000EA906213F0EC240CF582E43DF583E4F0A4
:100D700090620EF0050B850882850983E493F8E5FF
:100D80000BC3984003020E457A0079051216FC8ABF
:100D90000C8B0DEA450D60DCEA2402F8E4350DF910
:100DA000881089118882F583E493540FF5129062BC
:100DB0000EF0750A008A828B83A3A3A3A3E4932475
:100DC00007F50EA3E4933400F50F7403780E121F99
:100DD00063AA0EA812749F28F8E43403F9E8FCE92A
:100DE000FD750E01750F00E512780E121F31E50E2C
:100DF000F50EE50C2403F8E4350DF9851082851114
:100E000083E493A2E74003020D379062117448F027
:100E10007408120E4A7003750A408E828F83A3A352
:100E2000E493550E6006E50AD2E0F50AE50A906201
:100E300012F0EA906210F08C828D83A3A3A3A3A387
:100E4000A3A3020D6E7F0B021D81F088828983E4CB
:100E5000935403640122C082C083120F487010A310
:100E6000120F4B700AA3E064017002A3E0600790C8
:100E700003A67404800C9003B374A0F0A37403124F
:100E80000FA0F0D083D0822274F3121BE290039F54
:100E9000E0640260149003BC120F4B700CA3120F9D
:100EA0004B70069003BBE060099003A67404F00247
:100EB0000F437A007901121BE09003BAE0606F7A69
:100EC00000F912178B8A0A8B0BEA450B60589003C6
:100ED0009F7404F09003BAE09003A0F075080085B9
:100EE0000A82850B83A3A3A3A3E493F8E508C39820
:100EF000504AA80874A128F8E43403F9E8FEE9FF91
:100F00008E828F83E4F07A0079041216FC8A828B39
:100F100083A3A3A3E493F88E828F83E06870E71223
:100F20000CF5050880B99003A67404F0800E9003B8
:100F3000A0F090039F7403F0F912167C7A007902F6
:100F4000121BE07F06021D819003BAE0F8A3E0F9CE
:100F5000E8492274F6121BE290039FE064047019C2
:100F60009003B8E064817011120F48700C9003BEBA
:100F7000E064017002A3E060079003A67404801A85
:100F80009003BCE024A1F508A3E03403F509900325
:100F9000B3E508F0A3E509120FA0F07F03021D815D
:100FA000F0A3E4F0A304120FAA22F0A3E4F090034C
:100FB000A6042274F7121BE290039FE0640470649D
:100FC0009003B8E06401705C9003BE120F4B705444
:100FD0009003BAE0FB9003BCE0FA9003A0E0F912A2
:100FE00017C38A088B09AE08AF09EE4F603690032D
:100FF000BCE0FA7903121BE09003BAE0C0E0900372
:10100000BCE024A1F8A3E03403F988828983D0E00E
:10101000F0EEFAEFFB120CF59003BCE0FA79041243
:101020001BE080069003A67404F07F02021D81C0BD
:1010300082C0838003121A46A2E840F9A823E8542C
:101040000460097823E654FBF6121423A823E8541D
:101050001060097823E654EFF6121444A823E8A29E
:10106000E05005782354FCF690620EE0FA7404F028
:10107000906214E0A2E05039A9A8C2AF906216E0D5
:10108000F8A3E0E8FBE9A2E792AF8017906228E0BE
:10109000C0E0900393E0F8121131D0E0F090039398
:1010A000E004F0EBFD74FF2DFB0470E0906214E4AB
:1010B000F0EA90620EF0E0FC7404F0906211E0A29D
:1010C000E04031900395E0F8900394E06860257A61
:1010D00040900394121174E0906228F0900394E021
:1010E00004F008900395E06860041AEA70E39062E7
:1010F000117401F0EC90620EF0D083D0822274F86B
:10110000121BE2E9FE79008012121131E08A828B13
:1011100083F0900392E00412116909900392E0F8C1
:10112000900393E0686005E9C39E40DD7F01021DE6
:1011300081748528F582E43404F58322C082C0835B
:10114000E9FC80188A828B83E0C0E090039512113D
:1011500074D0E0121169900395E004F0ECF874FF8C
:1011600028FC0470DF79018090F08A828B83A3AA27
:1011700082AB8322E0F8748528F582E43405F58398
:1011800022C082C083900395E0F8900394E06860E9
:10119000047901800279000210F902102F74FB1209
:1011A0001ECB7E009006857808121F81794A1213A3
:1011B000D29006857401F0A3F0A37469F0A374A51E
:1011C000F09003D77808121EF670047E0180159007
:1011D00003DB7808121EF66008E59D541864107051
:1011E00003022000EEF9121349C280D291EEA2E070
:1011F00050030212FCAA18AB19120291E970030203
:1012000012FCC291851882851983E0C3943C500E6C
:10121000E0F8743CC398F50895E0F5098006750878
:1012200000750900E4F50AF50B9003DF780C121F36
:10123000817808790C121AE6790612015112102FE2
:10124000120176E9F8740968700779061201518075
:10125000277407686016A2935012E8600874066845
:1012600060030212FCA292400F0212FC7508007586
:101270000900750A00750B0085080C85090D850AA3
:101280000E850B0F9003C27808121F0BE50C450D5D
:10129000450E450F70A7D2807907120151800312C5
:1012A000102F121181E970F77E007F007401121F68
:1012B0009DE4F0A37426F0A3E4F0A3F07401121FE0
:1012C0009D7808121F8185080C85090D850A0E85F9
:1012D0000B0F9003C2780C121F0B7401121F9D7824
:1012E0000C121F72E5084509450A450B70CEA29203
:1012F00050FCA29350F81213CD022000D280D2915C
:10130000794E1213D2750800750900750A00750B25
:1013100000790512015112102F120176E9F87409B3
:101320006860EE74016870EE12102F9003E3780885
:10133000121F0B9003E77808121E0F50EB1213CD0B
:101340000220007405121E4C2274F8121BE2E9FE02
:1013500053BEFBE59DA2E650FA0078F8790100E85B
:1013600024FF18E934FFF9E84970F375C6807480EA
:10137000659E70FA43BE049062707408F01213C246
:10138000EE700853F4FEC29043FE017403F5D57568
:10139000D489900396E4F0A374C2F0A37401F0A37F
:1013A000E4F0A3F0A3F0A37408F01213E87AFF7B33
:1013B000FF121A0153F4FED29043FE011213C2022F
:1013C000112CD28043FD01C29143FE0222D280C281
:1013D0009122781075B60FE5B4A2E750FAE5BBC3C9
:1013E0009940F118E870ED2274F7121BE27A007947
:1013F0000112178B8A828B83A3A3A3A3A3A3A3E4C5
:1014000093A2E69003B2500474018001E4F09003CB
:10141000B1E4F090620F7403F0E0A2E750FB7F02AA
:10142000021D81C082C08390039F7402F0A3E4F088
:101430009003A6F0790312167C752100752200D066
:1014400083D0822274F6121BE290620EE0FEE4F07A
:10145000906211E0FFA2E4501D7480F09003A67426
:1014600007F0E52145226009852182852283121F2C
:10147000AC9003A6E4F0EFA2E2500B906211E4F00E
:101480009003A6F080679003A6E0F87402687046A7
:10149000906216E0FF9003B3121DC1EFF97A207B32
:1014A000621216967403121E4CEFF89003B61216D1
:1014B0005A1216642F12166CA3E0F8A3E0F9E8495B
:1014C0006004744080027448906211F0E84960033F
:1014D00002165002162C7406687009852182852236
:1014E00083121FAC9003A6E060030215D7EFA2E0C1
:1014F00040030216507508B8750903750A0078088C
:10150000121EE179087A207B621216967403121E6D
:101510004C7521007522009003B8E054E0601D2452
:10152000E070030215B224E0607224C0604824E039
:1015300070030215BD24E0606E0215C8A3E01460BC
:101540002624FE601D24FE600A24FC601F24FE6029
:10155000208075120B009003A6E06404707278601E
:101560008070120AF480EF120AE880EA120E888076
:10157000E5120FB380E0A3E0600E24FA600F24FEB2
:10158000601024FE6011804012092080C9120B46B1
:1015900080C4120E5680BF120F5380BA7521CB75CE
:1015A000221B121BCB80AF7521CD75221B121BCDC8
:1015B00080A475216675221B121B66809975219681
:1015C00075221B121B96808E9003A67404F0808EE9
:1015D0007840E8906211F09003A6E0F8740168701A
:1015E000617F029003B6E0F8A3E0F9C3E89420E934
:1015F00094005007E8F5087F0A80037508209003DF
:10160000B3121DC1A9087A207B621216C17403129D
:101610001E4CAC081216642C12166CA808A31216E5
:101620005AEF906211F0E8C394205024E52145223E
:101630006009852182852283121FAC9003A6E4F005
:10164000800E7405687009852182852283121FAC83
:10165000EE90620EF07F03021D81C3E098F0A3E0DC
:101660009400F0229003B31216EEE922F9E43AFA5C
:101670009003B3E9F0A3EAF0A3EBF022C082C083A9
:10168000E99003A77805F0A3D8FC9003AC7805F0A7
:10169000A3D8FC02143F74F8121BE2EAFCEBFDE94C
:1016A000F87408121F9D1216E960118C828D83E078
:1016B000121EB5E9240109E43AFAD8EF7F01021DB0
:1016C0008174F8121BE2EAFCEBFDE9F87408121FC2
:1016D0009D1216E96011121E828C828D83F0E9241E
:1016E0000109E43AFAD8EF80D31216EEE822E0F9C5
:1016F000A3E0FAA3E0FB22D083D08222C082C08381
:10170000E9FCEAFD7A007B00800312174790039DF5
:10171000E0F8A3E0F990047BE0687003A3E069605F
:101720002490039EE0F5838882A3E493F8EC68702C
:101730000D90039DE0FAA3E0FB1217478007ED68C8
:1017400070C8ED60C580B090039DE0F8A3E0F5831C
:101750008882E493F890039DE028F8A3E03400F930
:1017600090039DE8F0A3E9F022C082C08312177AAB
:101770007A0079011216FC0216F7900479E0F8A3BA
:10178000E0F990039DE8F0A3E9F02274F7121BE260
:10179000E9FFEAFE12177A7A0079021216FCEA4B88
:1017A000601CEF60108A828B83A3A3A3A3A3E4939E
:1017B0006F70E48009EEF874FF28FE0470D97F0290
:1017C000021D8174F5121BE2EAFF8B087A001217E2
:1017D0008B7A0279041216FCEA4B60188A828B839A
:1017E000A3A3E4936F70EA8A828B83A3A3A3E493F9
:1017F000650870DD7F04021D8174F7121BE274F02E
:10180000121ECBE97A007B00600C14601014601487
:101810001460180218E97AF37B030218E97AF77B5F
:10182000030218E97A1B7B040218E990043FE06088
:10183000030218E59003EB7408121F4C7408121D84
:10184000EE750808F5097808121EE57402121F4C9F
:101850007AE87B07797F1219007402121E4C78080F
:10186000121EE5740A121F4C7402121F44121CA5AA
:101870007402121E4C8B09EA45097019750900782B
:1018800008121EE57C0C7D787402121F44121D3B69
:101890007402121E4C7C287D00EDF8851882851993
:1018A00083E58228F582E43583F583E0FFECF87464
:1018B0003F28F8E43404F9EF1218F188828983F0A4
:1018C000EFC41218F1C0E0E824FEF582E934FFF518
:1018D00083D0E0F00D74FC2CFCEDC3940840BA906A
:1018E000043F742AF07A3F7B047410121E4C0217D6
:1018F000BE540FFA74692AF582E43404F583E022B9
:1019000074F6121BE2890A740F550AF5087509006E
:10191000740B7808121F31EA2400F8EB3480F9E8E0
:101920002400E93509F985C709A2AFE433F508C2F7
:10193000AFE50AC4540FFAE5C754F84AF5C7740A6C
:10194000121F9DE0FAA3E0FB801C88828983E08C53
:10195000828D83F088828983A3A882A9838C828D5B
:1019600083A3AC82AD83EAFEEBFFEE24FF1AEF34D3
:10197000FFFBEE4F70D48509C7E508A2E092AF7F68
:1019800003021D8174F7121BE2ED900389F0ECA3B2
:10199000F0A37462F0A37473F0A3E0541FF0740911
:1019A000121F9DE0F508A3E0F509E508333354FC68
:1019B00090038EF074067808121F63E50890038D7B
:1019C000F090038F7412F0A37442F075D1FE75D6B7
:1019D00001EA906271F0EBA3F0906270E0D2E1F066
:1019E000E0A2E740FB7F02021D81C082C083E9C301
:1019F00033906272F0906270E0D2E0F0D083D082D7
:101A00002274F7121BE27523007524007525008AE5
:101A1000268B27EA90620BF08A088B0974047808F9
:101A2000121F63E508906207F08A088B0974097831
:101A300008121F63E508543E906209F0758B00C2DE
:101A4000E87F02021D8174F7121BE2E59DA2E650B9
:101A5000FA906206E0F9A2E25034AA26EA90620BFC
:101A6000F0F50885270974047808121F63E50890CB
:101A70006207F08A0885270974097808121F63E550
:101A800008543E906209F0906201E0D2E0F0E978FB
:101A90002346F6906202E0F50875090074047808A0
:101AA000121F317823E50846F608E50946F69062EC
:101AB00004E0F50875090074097808121F317824CC
:101AC000E50946F6E9A2E050037525017406596060
:101AD00003752500E58BA2E55006758BDF752500A3
:101AE000121BE1021A3C080808EAC0E0EBC0E086DD
:101AF000F0E7A4FA180986F0E7A42AFA180986F094
:101B0000E7A42AFA180986F0E7A42AFA1986F0E76A
:101B1000A4FBE5F02AFA190886F0E7A42BFBE5F010
:101B20003AFA190886F0E7A42BFBE5F03AFA181800
:101B30000986F0E7A4C5F02BFBE43AFA1908E7C5DB
:101B4000F0C6A426F6E5F03BFBE43AFA1886F0E787
:101B5000A4F6E5F00826F6E43B08F6E43A08F6D0E9
:101B6000E0FBD0E0FA22C082C0839003B9E0F874B1
:101B7000226870089003A6E0701A801174206890A3
:101B800003A6700DE0700D121BBD9003A6740280B9
:101B9000027404F08043C082C0839003B9E06421E2
:101BA0009003A67013E07013121BBDA37407F0A37B
:101BB000E4F09003A60480027404F0801C9003B348
:101BC0007496F0A37403F0A3E4F02280028000C0B6
:101BD00082C0839003A67404F0D083D0822280EF69
:101BE00022222518C582C0E0E51934FFC583C0E074
:101BF000E518C3958224F910AF08858319858218EA
:101C00008008858319858218D2AFCEF0A3E520F035
:101C1000A37808E608F0A3DEFAEFF0A3E58124FB41
:101C2000F8E608F0A3E608F0A30808E608F0A3E643
:101C300008F0A315811581D0E0FED0E0F8158115DC
:101C400081E8C0E0EEC0E0221201000202000020A4
:101C50005104A81609000102030109024300020110
:101C6000008019090400000102020100052400108F
:101C700001042402020524060001052401000107D5
:101C800005820340004009040100020A0000000729
:101C900005840240000007050402400000631C00A8
:101CA00000861C000074F8121BE27408121F9DE0ED
:101CB000FEA3E08015A3AA82AB838C828D83A3ACA4
:101CC00082AD83EE24FF1EEF34FFFFEE4F60198CD0
:101CD000828D83E0F88A828B83E0F9E86960D6E937
:101CE000C398FA95E0FB80047A007B007F01021D17
:101CF00081E479217807B800028004F709D8FCE470
:101D000090030278C179018002F0A3D8FCD9FA7A55
:101D1000C27B0390008E78C479018015E493A3AD53
:101D200082AE838A828B83F0A3AA82AB838D828E5C
:101D300083D8E9D9E712119D121FA774F7121BE28D
:101D4000EAF8EBF97409121F9DE0FEA3E0FF80188A
:101D50008C828D83E088828983F0A3A882A9838CFA
:101D6000828D83A3AC82AD838E088F09E50824FFA2
:101D70001EE50934FFFFE508450970D47F02021D06
:101D800081851983851882E0A3FEE0A3F5207808F9
:101D9000E0A3F608DFFAE0A3FFE0A3C0E0E0A3C001
:101DA000E0E0A3C0E0E0A3C0E010AF0885821885A2
:101DB00083198008858218858319D2AFD083D08299
:101DC0002274038000CCC0E0EDC0E0E518C39CCCD9
:101DD000AD1950011D10AF068C188D1980068C1896
:101DE0008D19D2AF121DEED0E0FDD0E0FC22CAC0AA
:101DF000E0E0A3C582CCC582C583CDC583F0A3C571
:101E000082CCC582C583CDC583DAE6D0E0CA22C0C4
:101E100008C3E096F50808A3E096420808A3E096F8
:101E2000420808A3E09645087001D3D00822C58275
:101E30002518C582C583351910AF07F51985821895
:101E40008007F519858218D2AFC5832200C0D0253E
:101E50001810AF08F518500C05198008F518500235
:101E60000519D2AFD0D0222518F58210AF08F51889
:101E7000400C15198008F51840021519D2AF8519C4
:101E80008322BB0102E722C082C08389828A83BB8E
:101E90000003E08002E493D083D082226016080819
:101EA00008C6C313C618C613C618C613C618C61369
:101EB000C6D5E0EA22BB000EC082C0838A83898235
:101EC000F0D083D08222BB0101F722251810AF0881
:101ED000F518400C15198008F51840021519D2AFF5
:101EE000227403800474028000C0E0F404121E67B0
:101EF000D0E0121F9022E066701008A3E066700A1E
:101F000008A3E066700408A3E06622E026F608A3B2
:101F1000E036F608A3E036F608A3E036F622E62718
:101F2000F60809E637F60809E637F60809E637F64F
:101F300022700422600D18C6C333C608C633C6D546
:101F4000E0F418222518FAE43519FB222518FCE4E0
:101F50003519FD2275D00075813F7518027519037A
:101F6000021CF1600C08C6C313C618C613C6D5E020
:101F7000F422E6F008A3E6F008A3E6F008A3E6F0F2
:101F800022E0F608A3E0F608A3E0F608A3E0F622B4
:101F9000CAC0E0E6F0A308DAFAD0E0FA222518F584
:101FA00082E43519F5832200000080FBE473FFFF13
:101FB000FFFFFFFFFFFFFFFFFFFFFFFFFFFFFFFF31
:101FC000FFFFFFFFFFFFFFFFFFFFFFFFFFFFFFFF21
:101FD000FFFFFFFFFFFFFFFFFFFFFFFFFFFFFFFF11
:101FE000FFFFFFFFFFFFFFFFFFFFFFFFFFFFFFFF01
:0A1FF600850609433886000000004C
:020000040003F7
:01FFF000F020
:020000040000FA
:10200000022D7F02224BFFFFFFFFFFFFFFFFFFFFBD
:10201000FFFFFFFFFFFFFFFFFFFFFFFFFFFFFFFFD0
:10202000FFFFFFFFFFFFFFFFFFFFFF022B59FFFF37
:10203000FFFFFF02226DFFFFFFFFFFFFFFFFFFFF1C
:10204000FFFFFFFFFFFFFFFFFFFFFFFFFFFFFFFFA0
:10205000FFFFFF02218BFFFFFFFFFFFFFFFFFFFFDF
:10206000FFFFFFFFFFFFFFFFFFFFFF022A22FFFF2F
:10207000FFFFFFFFFFFFFFFFFFFFFF0228A9FFFF9A
:10208000FFFFFF0221DFFFFFFFFFFFFFFFFFFFFF5B
:10209000102010200100F0FF0700080000FFFF00E3
:1020A00000030400000F0000000300010020FD00F9
:1020B000020000B832000000001C3248338832FAB7
:1020C0003200004632000000000000000000005214
:1020D00032000000000000000000005E3206FFFF3A
:1020E000FF00035F005F00300058000000000000A8
:1020F00000000000000000000000000000000000E0
:102100000000000000000000000000C9261E271E7D
:10211000271E271E27262701040000201700000085
:10212000E8030000FFFF9C17018813000003E80389
:10213000000064006400B801A0BB0D00A0BB0D004E
:102140000202020704010101051E020514020178C2
:102150000A0A01010108090803B80B02803E0102C6
:10216000FEFFE8030A050001FFFF0A011401E00178
:1021700005030101FF0F10FEFF774F00000000ADC7
:102180004E00000000FF000000FF00C0E074F212EB
:10219000266AA2AFE433F508D2AFAFA7AEA1EE5FD7
:1021A00054106006122FAC75A1EFEE5F5408600862
:1021B000122FB275A1F78023EEA2E092F0EFA2E019
:1021C00082F05017906198E0F890048EE0C398A2D6
:1021D000D265D0335002E8F075A1FEE5088063C0F7
:1021E000E074F212266AA2AFE433FED2AF9061A48B
:1021F000E0F8759B00E59158540860087591F71256
:1022000030008023E59158541060087591EF12302A
:10221000068014E591A2E092F0E8A2E082F0500777
:10222000E0C2E0F01231509061A3E0F8E5E95854C3
:1022300004600E12312675E9FB906193E0A2E6403E
:10224000F2EEA2E092AF7F01022726C0E074F21204
:10225000266AA2AFE433FED2AF9061A5E0F8E5BFF5
:10226000585404600675BFFB12316880D4C0E07416
:10227000F112266AE59DA2E650FA906206E0F9A204
:10228000E25034AA2CEA90620BF0F508852D09740F
:10229000047808122D8FE508906207F08A08852DD2
:1022A0000974097808122D8FE508543E906209F0F0
:1022B000906201E0D2E0F0E9782946F6906202E00F
:1022C000F50875090074047808122CCC7829E50803
:1022D00046F608E50946F6906204E0F5087509003F
:1022E00074097808122CCC782AE50946F6E9A2E0B0
:1022F0005003752B017406596003752B00E58BA202
:10230000E55006758BDF752B001236D8758B00C231
:10231000E87F02022726C3E498F8E499F9122357CC
:102320008026C3E49AFAE49BFBE920E7E9122357ED
:10233000E498F8E499F922C3E498F8E499F91223AF
:1023400057E498F8E499F9C3E49AFAE49BFB22EB8A
:1023500020E7CFE920E7E0B90010BB0008E88AF0E9
:1023600084F8AAF022E4FBC8FA22EB70227B10C8A2
:1023700033C8C933C9335007C39AC3DBF280069A06
:1023800050012ADBEAC833F4C8C933F4C9FA22750C
:10239000F008E4C833C8C933C933C99AC99B50048B
:1023A000C92AC93BD5F0ECFBC833F4C8E4C9FA220A
:1023B00074F51225A174FA122BD67508047509005C
:1023C0007808122B2B7404122BB67AF87B0779034A
:1023D000122EBC7402122B3E9081717808122DAD22
:1023E0007402122E047808122C2D7048750802759C
:1023F00009007808122B2B7402122BB67AF67B0791
:102400007903122EBC7402122B3E85188285198323
:10241000E0F47003A3E0F4601B851882851983E063
:10242000F8A3E08882F5837402F0A3F0A37469F046
:10243000A374A5F0C2AF75D69F0200007406122BDC
:102440003E7F040228EC080808EAC0E0EBC0E08602
:10245000F0E7A4FA180986F0E7A42AFA180986F02A
:10246000E7A42AFA180986F0E7A42AFA1986F0E701
:10247000A4FBE5F02AFA190886F0E7A42BFBE5F0A7
:102480003AFA190886F0E7A42BFBE5F03AFA181897
:102490000986F0E7A4C5F02BFBE43AFA1908E7C572
:1024A000F0C6A426F6E5F03BFBE43AFA1886F0E71E
:1024B000A4F6E5F00826F6E43B08F6E43A08F6D080
:1024C000E0FBD0E0FA22E4CFC0E0E4CEC0E0E4CD0F
:1024D000C0E0E4CCC0E075F020E626F608E633F66E
:1024E00008E633F608E633F6181818EC33FCED333B
:1024F000FDEE33FEEF33FFC3EC9709ED9709EE973E
:1025000009EF97191919400FFFEC97FC09ED97FD9A
:1025100009EE97FE191906D5F0BFECF709EDF7099A
:10252000EEF709EFF7191919D0E0FCD0E0FDD0E083
:10253000FED0E0FF222518C582C0E0E51934FFC5B2
:1025400083C0E0E518C3958224F810AF088583198D
:102550008582188008858319858218D2AFCEF0A3B2
:10256000E520F0A37808E608F0A3DEFAEFF0A3E593
:102570008124FAF8E608F0A3E608F0A3E608F0A341
:102580000808E608F0A3E608F0A315811581D0E05D
:10259000FED0E0F8158115811581E8C0E0EEC0E0BD
:1025A000222518C582C0E0E51934FFC583C0E0E5E7
:1025B00018C3958224F910AF088583198582188085
:1025C00008858319858218D2AFCEF0A3E520F0A349
:1025D0007808E608F0A3DEFAEFF0A3E58124FBF823
:1025E000E608F0A3E608F0A30808E608F0A3E6086A
:1025F000F0A315811581D0E0FED0E0F8158115819A
:10260000E8C0E0EEC0E022122DF9B9000302265422
:10261000E47921780DB800028004F709D8FCE49031
:102620000401780879198002F0A3D8FCD9FA7A0855
:102630007B1C90209478F879018015E493A3AD82F7
:10264000AE838A828B83F0A3AA82AB838D828E8332
:10265000D8E9D9E77582687583907407122AEA75FC
:1026600082AA75834C7400122AEAC0D02518C5824C
:10267000C0E0E51934FFC583C0E0E518C3958224A6
:10268000F310AF0885831985821880088583198522
:102690008218D2AFC8F0A3E9F0A3EAF0A3EBF0A34D
:1026A0007908E709F0A3D8FAECF0A3EDF0A3EEF077
:1026B000A3EFF0A3D0E0F0A3D0E0F0A3D0E0F0A32C
:1026C000E520F0A3E5F0F0A32212010002020000D1
:1026D000205104A816090001020301090243000267
:1026E0000100801909040000010202010005240014
:1026F0001001042402020524060001052401000142
:102700000705820340004009040100020A0000009E
:102710000705840240000007050402400000E4268B
:10272000000007270000851983851882E0C0E0A318
:10273000E0F9A3E0FAA3E0FBA37808E0F608A3DF42
:10274000FAE0FCA3E0FDA3E0FEA3E0FFA3E0C0E00D
:10275000A3E0C0E0A3E0F5D0A3E0F520A3E0A3F55B
:10276000F010AF0885831985821880088583198544
:102770008218D2AFD082D083D0E0F8D0E032E473B8
:1027800075F0108E218F22858226858325851882FB
:10279000851983E0CEA3E0CF852682852583EBC90A
:1027A000EAC8EDCBECCAC3E833C8E933C9EA33CA97
:1027B000EB33CBC3EA9EF524EB9FF523B35004AB78
:1027C00023AA24EC33CCED33CDD5F0DAAE21AF2201
:1027D00022D083D082ECC0E0EDC0E0E493A3FCE41F
:1027E00093A3FDED4C600D12292CEC24FFFCED347D
:1027F000FFFD80EFE493A3FCE493A3FDED4C600D9B
:102800001229CDEC24FFFCED34FFFD80EFD0E0FD7C
:10281000D0E0FCE493A3C0E0E493C0E022851983F8
:10282000851882E0A3FEE0A3F5207808E0A3F6086F
:10283000DFFAE0A3FFE0A3C0E0E0A3C0E0E0A3C0B4
:10284000E0E0A3C0E0E0A3C0E010AF0885821885F7
:1028500083198008858218858319D2AFD083D082EE
:10286000022AF0D083D082E9C0E0E493A3C386F0CB
:10287000C5F095F0F908E493A386F0C5F095F070E3
:102880000BE493A3C3994005E9048002A3E475F027
:1028900002A42582F582E5F03583F583D0E0F9E4E2
:1028A00093A3C0E0E493C0E022C0E074F212266A71
:1028B000A2AFE433FED2AFE58AA2E2500790045102
:1028C000E0D2E0F0E58AA2E35007900451E0D2E1C3
:1028D000F0758A00C2EB7A107B0090044DE0F9128B
:1028E0003486EEA2E092AF7F010227268519838508
:1028F0001882E0A3FEE0A3F5207808E0A3F608DF45
:10290000FAE0A3FFE0A3C0E0E0A3C0E0E0A3C0E0E2
:10291000E0A3C0E010AF0885821885831980088580
:102920008218858319D2AFD083D08222C0E0C3E45D
:102930009396087401939618400FE4936670080804
:10294000740193661870007019A3A3C3E4939608EA
:102950007401939618A3A3400DD0E0D0E0D0E0021C
:10296000280DA3A3A3A3A3A3D0E02274048008741A
:1029700003800474028000CCC0E0EDC0E0E518C321
:102980009CCCAD1950011D10AF068C188D19800616
:102990008C188D19D2AF122A6CD0E0FDD0E0FC2249
:1029A00074028000CCC0E0EDC0E0E518C39CCCAD63
:1029B0001950011D10AF068C188D1980068C188DCA
:1029C00019D2AF122A4AD0E0FDD0E0FC22C0E0C00C
:1029D000F088F0E49366700808740193661870003C
:1029E000A8F0A3A3700BD0F0D0E0D0E0D0E0022894
:1029F0000DA3A3D0F0D0E022D083D082CCC0E0E4FD
:102A000093A36006122A8D1470FAE493A360061251
:102A10002C021470FAD0E0FCE493A3C0E0E493C06D
:102A2000E022C0E074F212266A758900C2C59019CE
:102A3000A9E0700E7A007B10900524E0F91234862C
:102A40008003123D747F01022726CAC0E0E493A3ED
:102A5000C582CCC582C583CDC583F0A3C582CCC554
:102A600082C583CDC583DAE5D0E0CA22CAC0E0E0E2
:102A7000A3C582CCC582C583CDC583F0A3C582CC56
:102A8000C582C583CDC583DAE6D0E0CA22C0E0E4C2
:102A900093A3D39C5010E493A3C39C400AD0E0D0EE
:102AA000E0D0E0022A15A3A3A3D0E022C008C3E02F
:102AB00096F50808A3E096420808A3E096420808A5
:102AC000A3E09645087001D3D008227009080808D1
:102AD000226016181818C6C333C608C633C608C6FF
:102AE00033C608C633C6D5E0EA22C09FF59FE4731B
:102AF000D09F22D083D082C09FE493C0E074019322
:102B0000C0E0740293F59F222518F58210AF08F5F6
:102B100018400C15198008F51840021519D2AF8518
:102B20001983227404800A7403800674028002747C
:102B300001C0E0F404122B08D0E0122DBC2200C02A
:102B4000D0251810AF08F518500C05198008F51895
:102B500050020519D2AFD0D022C0E0C0D0E8C0E00A
:102B6000A8A8D2AFC2C7E8A2E792AFD0E0F8D0D011
:102B7000D0E032BB0102E722C082C08389828A830F
:102B8000BB0003E08002E493D083D0822260160869
:102B90000808C6C313C618C613C618C613C618C677
:102BA00013C6D5E0EA222518F8E43519F9222518CC
:102BB000FAE43519FB222518FCE43519FD22C3E09F
:102BC000C696F608A3E0C696F608A3E0C696F608F1
:102BD000A3E0C696F622251810AF08F518400C158C
:102BE000198008F51840021519D2AF22BB000EC09B
:102BF00082C0838A838982F0D083D08222BB010184
:102C0000F722C0E0E493A36C7009D0E0D0E0D0E0FC
:102C1000022A15A3A3D0E022E76670100809E76630
:102C2000700A0809E76670040809E76622E0667022
:102C30001008A3E066700A08A3E066700408A3E029
:102C40006622C3E09608A3E09608A3E09608A3E0F6
:102C500096A2D265D03322C3E096F008A3E096F0A6
:102C600008A3E096F008A3E096F022C3E697F608E2
:102C700009E697F60809E697F60809E697F622C3EB
:102C8000E49396087401939608740293960874036B
:102C9000939622E627F60809E637F60809E637F69E
:102CA0000809E637F622E026F008A3E036F008A38C
:102CB000E036F008A3E036F022E647F60809E647DA
:102CC000F60809E647F60809E647F622700422608E
:102CD0000D18C6C333C608C633C6D5E0F41822E4BF
:102CE00093F608740193F608740293F6087403933C
:102CF000F622E026F608A3E036F608A3E036F6084A
:102D0000A3E036F622E657F60809E657F60809E684
:102D100057F60809E657F622E056F608A3E056F6FD
:102D200008A3E056F608A3E056F622E056F008A302
:102D3000E056F008A3E056F008A3E056F022E4C302
:102D400096F608E496F608E496F608E496F622C6A7
:102D5000F4C608C6F4C608C6F4C608C6F4C622C33C
:102D6000E09608A3E09608A3E09608A3E09622C3A5
:102D7000E7960809E7960809E7960809E796227595
:102D8000D00075813F75180175190400022607608F
:102D90000C08C6C313C618C613C6D5E0F422E6F065
:102DA00008A3E6F008A3E6F008A3E6F022E0F608A0
:102DB000A3E0F608A3E0F608A3E0F622CAC0E0E626
:102DC000F0A308DAFAD0E0FA22EAF0A3EBF0A3ECE1
:102DD000F0A3EDF022E0FAA3E0FBA3E0FCA3E0FD0A
:102DE00022E0F8A3E0F9A3E0FAA3E0FB22E8F0A3D5
:102DF000E9F0A3EAF0A3EBF022E5C754F84401F5AB
:102E0000C77901222518F582E43519F58322122AA3
:102E1000F3F6E405122AF33BE505122AF3CBE505A8
:102E2000122AF323E605122AF305E705122AF3EA2C
:102E3000E705122AF32FE805122AF390E805122A73
:102E4000F31CE905122AF348E905122AF393E90570
:102E5000122AF3B9E905122AF351EA05122AF3FA04
:102E6000EA05122AF34DEB05122AF37EEB05122A2E
:102E7000F3B5EB05122AF359ED05122AF325EE05F9
:102E8000122AF3D8EE05122AF367A007122AF36E6E
:102E9000A007122AF386A007122AF3FDFF01122AC7
:102EA000F3DFFF03122AF3119E07122AF3219E0774
:102EB000122AF3369E07122AF39E9E07122AF31255
:102EC0009A07122AF3959A07122AF3FB9A07122AF5
:102ED000F3729D07122AF3759D07122AF3AE9D0720
:102EE000122AF3FE9D07122AF3FCFA06122AF30AAD
:102EF000FB06122AF383FB06122AF357FC06122A5A
:102F0000F316FE06122AF3BDFF04122AF3EC88071B
:102F1000122AF3968907122AF3CF8907122AF31689
:102F20008A07122AF3D98A07122AF3018B07122A79
:102F3000F3278B07122AF33B8B07122AF3508B07D8
:102F4000122AF3598B07122AF358FA03122AF38430
:102F5000FA03122AF306FD03122AF35DFD03122A77
:102F6000F39DFD03122AF3B1FD03122AF3CAFD03F8
:102F7000122AF3BBFE03122AF36CFF03122AF3801A
:102F8000FF03122AF3F49307122AF3189407122A64
:102F9000F3319407122AF3639407122AF3939407E8
:102FA000122AF3C09407122AF3229507122AF3314A
:102FB0009507122AF33B9507122AF3489507122A20
:102FC000F3478607122AF3678607122AF3A68607B5
:102FD000122AF3C18607122AF3E08607122AF34663
:102FE0008707122AF34F8707122AF3AC8707122AA2
:102FF000F3BB8707122AF3DF8707122AF3A088079B
:10300000122AF3AD8807122AF3BE8807122AF3A208
:103010009F07122AF3BA9F07122AF3E69F07122A84
:10302000F39EDF06122AF3F8E006122AF306E10601
:10303000122AF319E106122AF32EE106122AF343AB
:10304000E106122AF356E106122AF3CAE106122A11
:10305000F32FE206122AF3D1E206122AF395E306D1
:10306000122AF3A5E306122AF3B4E306122AF3D9CF
:103070009C07122AF3FD9C07122AF3259D07122AAA
:10308000F34D9D07122AF3908B07122AF3B78B0793
:10309000122AF3D68B07122AF33E8C07122AF32B3F
:1030A000FD05122AF344FD05122AF350FD05122AEC
:1030B000F364FD05122AF382FD05122AF38CFD0547
:1030C000122AF396FD05122AF3A9FD05122AF336FA
:1030D000FE05122AF3A5FE05122AF3D4FE05122AD4
:1030E000F322FF05122AF371FF05122AF38CFF0564
:1030F000122AF396FF05122AF3A7FF05122AF3EA14
:10310000FF05122AF3AFFF01122AF339A306122A90
:10311000F363A306122AF380A306122AF393A306ED
:10312000122AF3A9A306122AF307A406122AF33AD5
:10313000A406122AF32BA806122AF38BA906122A38
:10314000F3BEA906122AF308AA06122AF35BAB06FD
:10315000122AF383AB06122AF398AB06122AF3A8BD
:10316000AB06122AF3ECAB06122AF347AC06122A7E
:10317000F357AC06122AF3AD9607122AF3C7960747
:10318000122AF3EF9607122AF3089707122AF32C54
:103190009707122AF34A9707122AF3619707122A10
:1031A000F38F9707122AF3AA9707122AF3E99F07CA
:1031B000122AF373F706122AF383F706122AF3880A
:1031C000F806122AF3BAF806122AF3EAF806122AC7
:1031D000F30DF906122AF324F906122AF35EF90612
:1031E000122AF3C7F906122AF309FA06122AF3483B
:1031F000FA06122AF379FA06122AF3A4FA06122A18
:10320000F3F2EB06122AF357EC06122AF3FDEC0652
:10321000122AF334ED06122AF3B9EF05122AF350FD
:10322000F005122AF37EF205122AF369F505122A37
:10323000F3F7F605122AF363F705122AF3B2FA053B
:10324000122AF3FDFB05122AF3DD9707122AF32851
:103250009807122AF38AFD02122AF39AFF02122A11
:10326000F3C9BB06122AF3F6BB06122AF335BD06D4
:10327000122AF3CEBE06122AF352C106122AF3898D
:10328000C106122AF3D7C206122AF38FD006122AD9
:10329000F335D306122AF3DAD306122AF306D4063C
:1032A000122AF334D406122AF369D406122AF391AF
:1032B000D406122AF3F1D406122AF3299806122A08
:1032C000F3939C06122AF3489E06122AF3719F0676
:1032D000122AF351A006122AF3F4A106122AF3C00F
:1032E000A206122AF314A306122AF3388E07122A12
:1032F000F3428E07122AF3638E07122AF35DD1057B
:10330000122AF329D705122AF389D805122AF35372
:10331000DA05122AF3CEDA05122AF36DDB05122A3A
:10332000F366DC05122AF398DD05122AF3CCDE05DC
:10333000122AF3D8DF05122AF3C0E005122AF3A1FE
:10334000E105122AF399DB03122AF3D1DB03122AD7
:10335000F32CE603122AF30DE703122AF359E803CC
:10336000122AF3A2E903122AF358EA03122AF32CD1
:10337000EB03122AF32AEC03122AF37FED03122A3D
:10338000F366EE03122AF34EEF03122AF3F0EF0373
:10339000122AF31AF003122AF3CAF103122AF33A9B
:1033A000F203122AF353F203122AF3AAF303122AA6
:1033B000F35BF403122AF3DDF403122AF389F50315
:1033C000122AF3FDF503122AF399F603122AF311D8
:1033D000F703122AF349F703122AF34BF803122AD0
:1033E000F306F903122AF3B1F903122AF37BFE065E
:1033F000122AF3A5FE06122AF3B9FF06122AF3BC1D
:10340000FF06122AF3F79B07122AF3329C07122AAF
:10341000F3749C07122AF3849C07122AF3C89C07B2
:10342000122AF310CA06122AF34ECA06122AF3B75A
:10343000CA06122AF3D4CA06122AF3EDCA06122AC1
:10344000F39FCB06122AF3A8CB06122AF3EDCB0684
:10345000122AF323CC06122AF33ACC06122AF3AC32
:10346000CC06122AF339CD06122AF36FCD06122AA2
:10347000F3C6CD06122AF32ACE06122AF34DCE0643
:10348000122AF3B1CE06122AF30DCF06122AF34800
:10349000CF06122AF37DCF06122AF38FCF06122A07
:1034A000F3A1CF06122AF3D9CF06122AF325D006AC
:1034B000122AF363D006122AF38DDA06122AF3CD0C
:1034C000DB06122AF3F0DB06122AF301DC06122ACD
:1034D000F3F6DD06122AF316DE06122AF384FD0443
:1034E000122AF3BAFD04122AF302FE04122AF35E32
:1034F000FF04122AF3E1E902122AF312EB02122A64
:10350000F34CEB02122AF30BED02122AF335ED0213
:10351000122AF3C2EF02122AF302F002122AF399DE
:10352000F102122AF32CF202122AF384F202122A76
:10353000F327F302122AF35FF302122AF3A1F30234
:10354000122AF310F502122AF362F602122AF38508
:10355000F802122AF3B3F802122AF3DAF802122A56
:10356000F3E3F802122AF33AF902122AF3CCF90231
:10357000122AF3BAFC02122AF33DFD02122AF328A2
:103580009F07122AF33E9F07122AF3489F07122A29
:10359000F3F1E706122AF307E806122AF3ACE8066D
:1035A000122AF3EBE806122AF308E906122AF33985
:1035B000E906122AF386E906122AF3B9E906122A65
:1035C000F3F4E906122AF3E0EB06122AF3E87E0090
:1035D000122AF3477F00122AF3927F00122AF3FF88
:1035E0009807122AF3719907122AF3AF9907122A42
:1035F000F3F09907122AF387AC06122AF38DAC0672
:10360000122AF3CEAC06122AF3C0AE06122AF3F049
:10361000AE06122AF35FAF06122AF32DB006122A65
:10362000F36EB006122AF39CB006122AF326B106F6
:10363000122AF33DB106122AF34AB106122AF354B4
:10364000B106122AF3F0B206122AF300B406122AC7
:10365000F349B406122AF337F701122AF34DF701A2
:10366000122AF3E0F701122AF30CF901122AF301EE
:10367000FA01122AF39EFA01122AF3DEFA01122A43
:10368000F35CFB01122AF3B9FB01122AF3C9FB0117
:10369000122AF3F0FB01122AF343FC01122AF3B4BD
:1036A000FD01122AF3B9FD01122AF3D9FD01122AF4
:1036B000F3A89E07122AF3D69E07122AF30B9F0740
:1036C000122AF30D9F07122AF30F9F07122AF320E5
:1036D0009F07122AF3229F07122AF3259F07122A17
:1036E000F3659207122AF3D39207122AF3F5920791
:1036F000122AF32D9307122AF3639307122AF32554
:103700008307122AF36C8307122AF38F8307122A86
:10371000F3C28507122AF3DC8507122AF30786070E
:10372000122AF394FF03122AF386B406122AF35FD7
:10373000B506122AF345B606122AF356B606122A21
:10374000F367B606122AF3B3B606122AF3A7B80631
:10375000122AF3FBB906122AF32BBA06122AF3F245
:10376000BA06122AF350BB06122AF3008005122A69
:10377000F3328005122AF3CB8005122AF324820546
:10378000122AF30B8305122AF3D68405122AF3F2C8
:103790008405122AF3418505122AF3C38505122AEE
:1037A000F3198605122AF32C8605122AF390860552
:1037B000122AF3EB8605122AF39B8705122AF38C53
:1037C0008805122AF3C78805122AF34D8905122AA3
:1037D000F33D8B05122AF3FE8B05122AF3258D0586
:1037E000122AF3A28D05122AF3618E05122AF3E63E
:1037F0008E05122AF3328F05122AF34C8F05122AF6
:10380000F3958F05122AF3B58F05122AF36B9005F5
:10381000122AF3919105122AF39C9105122AF303BF
:103820009205122AF3569205122AF3B49205122A2F
:10383000F3B09305122AF3539605122AF3729605F4
:10384000122AF3839705122AF3A79705122AF31D6C
:103850009805122AF3DD9805122AF3149905122A05
:10386000F3869905122AF3A69A05122AF3D69A0529
:10387000122AF3E09A05122AF3E39A05122AF3EDCD
:103880009A05122AF3009B05122AF37A9B05122A45
:10389000F3B09B05122AF3C39B05122AF3EF9B0595
:1038A000122AF3169C05122AF33A9C05122AF3E811
:1038B0009C05122AF35A9D05122AF3919D05122A9E
:1038C000F39B9D05122AF3D29D05122AF3E89D056C
:1038D000122AF3059E05122AF3339E05122AF34994
:1038E0009E05122AF3619E05122AF3739E05122A81
:1038F000F3149B07122AF3259B07122AF3A69B07B2
:10390000122AF3FAFF01122AF305C306122AF3540E
:10391000C306122AF3F4C406122AF3C8C606122AF2
:10392000F30AC706122AF3D5C706122AF3DDC80622
:10393000122AF3FFC806122AF35BC906122AF3DC27
:10394000C906122AF3B35200122AF3D55200122AE2
:10395000F3685400122AF3B15400122AF3255500DB
:10396000122AF3A25500122AF3075600122AF30A6C
:103970005600122AF34C5600122AF3BB5600122AA4
:10398000F36A5700122AF36D5700122AF3E2570028
:10399000122AF3255800122AF31B5C00122AF38620
:1039A0005D00122AF3C45D00122AF31A5E00122A87
:1039B000F3606100122AF3DD6100122AF38B6300C9
:1039C000122AF3BB6400122AF3F16500122AF36B8A
:1039D0006600122AF38E6700122AF3336800122A57
:1039E000F3476800122AF3156900122AF33E6A00B1
:1039F000122AF3576C00122AF3316E00122AF3C216
:103A00006E00122AF3D07100122AF3717200122A8A
:103A1000F3607300122AF3AF7600122AF3BF760028
:103A2000122AF33D7800122AF3CE7800122AF3CB43
:103A30007900122AF3627B00122AF3FC7B00122A1F
:103A4000F3217D00122AF36B7D00122AF32B7E00F6
:103A5000122AF3A69E05122AF3469F05122AF3B0F6
:103A60009F05122AF3C99F05122AF360A005122AA6
:103A7000F3A4A005122AF3C6A105122AF302A20597
:103A8000122AF37EA205122AF3C9A205122AF328EC
:103A9000A305122AF338A405122AF358A705122AFF
:103AA000F379A805122AF3F4A805122AF3DBAA0574
:103AB000122AF37BAB05122AF322AC05122AF385F6
:103AC000AC05122AF3FAAC05122AF309AE05122A44
:103AD000F3DDAE05122AF313AF05122AF342AF0548
:103AE000122AF3F6AF05122AF322B005122AF3A226
:103AF000B005122AF322B205122AF3AEB305122A38
:103B0000F3F6B405122AF361B605122AF36DB70570
:103B1000122AF310B805122AF389B805122AF3B74E
:103B2000B905122AF3C1BA04122AF324BB04122ADB
:103B3000F36CBB04122AF3B0BB04122AF31ABC04C0
:103B4000122AF363BC04122AF39BBC04122AF33535
:103B5000BD04122AF38FBD04122AF3DCBE04122A1C
:103B6000F365BF04122AF38CBF04122AF396C00433
:103B7000122AF381C104122AF3CEC104122AF3CD12
:103B8000C204122AF3F5C204122AF33EC404122A14
:103B9000F34FC404122AF367C404122AF350C50475
:103BA000122AF336C604122AF33FC704122AF36915
:103BB000C704122AF381C704122AF39BC704122AEE
:103BC000F3D2C704122AF3F2C704122AF319C80465
:103BD000122AF330C804122AF30CC904122AF3641F
:103BE000C904122AF30DCC04122AF33CCD04122A84
:103BF000F372CD04122AF37CCD04122AF393CD0480
:103C0000122AF300CE04122AF3E9CE04122AF31F7B
:103C1000CF04122AF3F0CF04122AF391D004122A0F
:103C2000F3BFD004122AF3CCD104122AF3EBD1044F
:103C3000122AF36ED204122AF3DFD204122AF323DB
:103C4000D304122AF3A7D304122AF304D404122AA9
:103C5000F3B1D404122AF397D604122AF377D704C7
:103C6000122AF3CDD704122AF32BD904122AF350C7
:103C7000DB04122AF3FADD04122AF3A4DF04122A69
:103C8000F374E004122AF3ECE004122AF30EE104C8
:103C9000122AF335FB04122AF3EDE204122AF35838
:103CA000E304122AF3E3EF06122AF388F106122A3C
:103CB000F34EF206122AF3B2F206122AF326F306A4
:103CC000122AF3EDE306122AF30BE406122AF34F4D
:103CD000E406122AF375E406122AF39BE406122A7C
:103CE000F3B3E406122AF3CBE406122AF336E50610
:103CF000122AF378E506122AF3DAE405122AF3947D
:103D0000E606122AF3AFE606122AF3B8E606122AEE
:103D1000F3C1E606122AF3CAE606122AF3D4E6062F
:103D2000122AF3F5E606122AF372E706122AF3A422
:103D3000D506122AF305DA06122AF321DA06122A28
:103D4000F326DA06122AF3E49007122AF30080071A
:103D5000122AF3168007122AF3888107122AF3B277
:103D60008107122AF3F88107122AF3F68207122A32
:103D7000F3529507122AF33BA007122AF395A007E6
:103D8000122AF3008003122AF3328003122AF39ED0
:103D90008003122AF3398103122AF3D88103122AED
:103DA000F31D8203122AF33F8203122AF35882037F
:103DB000122AF37E8203122AF3A08203122AF3DE70
:103DC0008203122AF3228303122AF3448303122A62
:103DD000F3A68303122AF36D8403122AF3248503C6
:103DE000122AF3968503122AF3688603122AF3B285
:103DF0008603122AF3058703122AF36B8703122A1C
:103E0000F3A58703122AF3F78703122AF313880313
:103E1000122AF33E8803122AF3458A03122AF399E1
:103E20008B03122AF3BB8B03122AF3EF8B03122AA4
:103E3000F3108C03122AF31F8C03122AF32A8C032B
:103E4000122AF3DA8C03122AF3438D03122AF3F0B9
:103E50008D03122AF3288E03122AF3EE8E03122A00
:103E6000F3FB8F03122AF3459003122AF3D4900335
:103E7000122AF3389103122AF3739103122AF3DF03
:103E80009303122AF3339503122AF36C9803122A30
:103E9000F3399903122AF3C79903122AF3DB990322
:103EA000122AF3049A03122AF3769A03122AF30AC7
:103EB0009B03122AF37A9B03122AF3629C03122AB1
:103EC000F3849C03122AF3EA9D03122AF3039E0350
:103ED000122AF3169E03122AF3739E03122AF38208
:103EE0009E03122AF30B9F03122AF3219F03122A27
:103EF000F32DA003122AF33AA003122AF343A003DE
:103F0000122AF31BA203122AF34BA303122AF35B18
:103F1000A303122AF36AA403122AF3E1A403122AC8
:103F2000F31AA503122AF34AA603122AF390A60352
:103F3000122AF35CA803122AF334AC03122AF348C2
:103F4000AC03122AF352AC03122AF35CAC03122A1C
:103F5000F366AC03122AF370AC03122AF389AC03A4
:103F6000122AF393AC03122AF311AD03122AF31CA5
:103F7000AD03122AF349AD03122AF36EAD03122AE0
:103F8000F379AD03122AF3C7AD03122AF3D1AD03BF
:103F9000122AF3DCAD03122AF300AE03122AF32433
:103FA000AE03122AF380AE03122AF3C6AE03122A1E
:103FB000F3E3AE03122AF360AF03122AF397AF03C1
:103FC000122AF3D6AF03122AF323B003122AF3A561
:103FD000B003122AF33EB103122AF30EB303122ADE
:103FE000F36CB303122AF388B403122AF3AEB403BA
:103FF000122AF3EDB503122AF313B903122AF3546C
:10400000BB03122AF330BD03122AF3C6BD03122AE2
:10401000F3EDBF03122AF399C003122AF3CEC003B3
:10402000122AF333C103122AF33DC103122AF367A4
:10403000C303122AF355C403122AF39EC503122A9E
:10404000F3DEC503122AF384C603122AF315C8034C
:10405000122AF39EC903122AF3BEC903122AF317C8
:10406000CA03122AF319CB03122AF363CB03122AD1
:10407000F3B3CB03122AF39DCC03122AF312CD0320
:10408000122AF32CCE03122AF3A7CE03122AF3AC82
:10409000CF03122AF357D203122AF376D203122A3D
:1040A000F3D7D303122AF399D503122AF3EDD503DC
:1040B000122AF3A5D603122AF354D703122AF3B413
:1040C000D703122AF36AD803122AF3FFD803122A5D
:1040D000F36BD903122AF3A5D903122AF3D6D90315
:1040E000122AF332DB03122AF3008002122AF3327F
:1040F0008002122AF3698002122AF3508202122AE5
:10410000F3908202122AF3738302122AF3CB830202
:10411000122AF3068502122AF3528502122AF37A32
:104120008802122AF3E68B02122AF3338D02122A36
:10413000F3C98D02122AF3D58D02122AF3078E02DB
:10414000122AF3898F02122AF3979002122AF3C1DE
:104150009002122AF3189102122AF3719102122A84
:10416000F3DD9102122AF3F49302122AF3839502EB
:10417000122AF34D9602122AF38B9702122AF3BBEE
:104180009902122AF38B9C02122AF3989C02122A9B
:10419000F31F9D02122AF3C79D02122AF30A9E0200
:1041A000122AF3539E02122AF3A79E02122AF30C3C
:1041B0009F02122AF3749F02122AF3919F02122A7D
:1041C000F3C19F02122AF3F69F02122AF3C6A0023D
:1041D000122AF36FA102122AF3F3A302122AF31395
:1041E000A502122AF3FCA502122AF37EA602122AC5
:1041F000F3A0AA02122AF3DDAA02122AF335AB02B7
:10420000122AF368AB02122AF3E9AB02122AF33640
:10421000AC02122AF3C1AC02122AF313AD02122A25
:10422000F3EAAD02122AF3A3AE02122AF33EAF0262
:10423000122AF357B202122AF377B302122AF32892
:10424000B702122AF346B802122AF349B802122A18
:10425000F378B802122AF37EBA02122AF357BB028D
:10426000122AF38CBB02122AF394BC02122AF34ADC
:10427000BD02122AF3F0BE02122AF354BF02122A20
:10428000F379BF02122AF3B8BF02122AF3F9BF0270
:10429000122AF3D1C002122AF3AFC102122AF3DCB0
:1042A000C102122AF3A9C202122AF3DFC402122A9F
:1042B000F350C502122AF390C502122AF3C9C502AF
:1042C000122AF35DC602122AF3A6C702122AF36964
:1042D000CB02122AF358CC02122AF33FCD02122A43
:1042E000F3B7CD02122AF379CE02122AF32FD002AD
:1042F000122AF3B7D002122AF3CCD102122AF3DD2C
:10430000D102122AF3F5D102122AF306D202122A9E
:10431000F31AD202122AF352D202122AF380D202E4
:10432000122AF307D402122AF3D9D402122AF36014
:10433000D502122AF39BD502122AF3F9D502122ACA
:10434000F340D602122AF305D802122AF3B7D80294
:10435000122AF3E7D802122AF3CBD902122AF37CED
:10436000DA02122AF337DC02122AF3EEDC02122AF6
:10437000F323DD02122AF38BDD02122AF3BADE02E6
:10438000122AF36CDF02122AF39DDF02122AF3B520
:10439000DF02122AF344E002122AF3F8E202122AA0
:1043A000F3D0E402122AF3ECE402122AF308E50245
:1043B000122AF3D6E502122AF3BFE902122AF3BA4F
:1043C000F306122AF3FAF306122AF3ADF506122ABF
:1043D000F3BCF506122AF312BB05122AF329C00515
:1043E000122AF374C005122AF3C4C205122AF35824
:1043F000C405122AF3E6C405122AF347C705122A98
:10440000F34CC905122AF3A0C905122AF3AFCB0554
:10441000122AF302CC05122AF35DCC05122AF37F8F
:10442000CC05122AF386CC05122AF39ECC05122A5B
:10443000F37ECD05122AF35DCE05122AF30E82011A
:10444000122AF3508201122AF3868701122AF3D22C
:104450008701122AF3188801122AF3678901122AA8
:10446000F3C38901122AF3088A01122AF39B8B01F4
:10447000122AF3F18E01122AF3169001122AF398F0
:104480009B01122AF32B9C01122AF3889F01122A06
:10449000F3C7A001122AF322A101122AF36AA20192
:1044A000122AF356A301122AF3EDA501122AF35C96
:1044B000A701122AF3E3A701122AF3E6A701122AA1
:1044C000F35BA801122AF365A801122AF372A8016E
:1044D000122AF39DA801122AF34DA901122AF34AC8
:1044E000AA01122AF3F4AA01122AF381AB01122ABB
:1044F000F39FAB01122AF3B8AB01122AF3E1AB012F
:10450000122AF303AC01122AF349AE01122AF32C4A
:10451000AF01122AF372AF01122AF3F1AF01122A8E
:10452000F39DB001122AF3CFB001122AF321B10199
:10453000122AF35DB101122AF39CB101122AF3ECA5
:10454000B101122AF3F1B101122AF345B201122A84
:10455000F371B201122AF34DB301122AF39DB30194
:10456000122AF30AB401122AF364B401122AF3FBEB
:10457000B401122AF340B801122AF358B901122AE1
:10458000F3F1BA01122AF324BE01122AF3B6BE01D6
:10459000122AF3ADC101122AF36CC201122AF3B040
:1045A000C201122AF355C401122AF369C401122A66
:1045B000F373C401122AF37DC401122AF389C401E2
:1045C000122AF3A5C401122AF305C701122AF344E3
:1045D000C701122AF34EC701122AF358C701122A43
:1045E000F3DEC701122AF336C801122AF353C901B8
:1045F000122AF3B7C901122AF3C4CA01122AF30816
:10460000CB01122AF3B4CB01122AF38DCC01122A6A
:10461000F348CD01122AF355CE01122AF38FCF01B0
:10462000122AF38CD001122AF3A4D001122AF3FB30
:10463000D001122AF305D101122AF30FD101122A57
:10464000F31AD101122AF338D101122AF380D101D1
:10465000122AF3E2D101122AF309D201122AF31B22
:10466000D201122AF3B6D201122AF3EBD201122A96
:10467000F3EAD301122AF338D401122AF332D50116
:10468000122AF368D501122AF3EBD501122AF35C42
:10469000D601122AF308D801122AF332D901122ABC
:1046A000F3F5D901122AF3C6DA01122AF331DB013C
:1046B000122AF3AEDB01122AF3DBDC01122AF36FBC
:1046C000DD01122AF3BFDD01122AF32ADE01122ACC
:1046D000F3F0DE01122AF33ADF01122AF392DF012E
:1046E000122AF36AE001122AF38DE001122AF35034
:1046F000E101122AF372E101122AF3DBE101122A2D
:10470000F3F1E301122AF3E1E401122AF3ABE5012C
:10471000122AF3E3E701122AF32DE801122AF37DAE
:10472000E801122AF3EAE801122AF34CE901122AFD
:10473000F37AE901122AF39EE901122AF3D3E9017F
:10474000122AF304EA01122AF337EA01122AF3913A
:10475000EA01122AF3E4EA01122AF310EC01122A08
:10476000F3BDED01122AF30BEE01122AF334EE0130
:10477000122AF3C0EE01122AF335EF01122AF34395
:10478000EF01122AF367EF01122AF3C4EF01122A94
:10479000F3E3EF01122AF399F001122AF3D1F001A9
:1047A000122AF314F101122AF377F101122AF369A4
:1047B000F301122AF393F301122AF397F401122A58
:1047C000F3A9F501122AF359F601122AF3148D0602
:1047D000122AF34C8D06122AF36D8D06122AF3AFBE
:1047E0008D06122AF3118E06122AF31B8E06122A48
:1047F000F32B8E06122AF3668E06122AF3469206D1
:10480000122AF3339406122AF3199606122AF3B0E9
:104810009606122AF3529706122AF3968004122A59
:10482000F3418104122AF3EF8104122AF3F5820482
:10483000122AF3158304122AF33E8404122AF3F990
:104840008504122AF36C8604122AF3108704122AB4
:10485000F31C8804122AF3878804122AF3C38804FD
:10486000122AF3068904122AF3418904122AF383D7
:104870008904122AF3188A04122AF3948A04122A49
:10488000F35E8B04122AF33B8C04122AF3D38C04BC
:10489000122AF3ED8C04122AF31D8D04122AF34E12
:1048A0008D04122AF3148E04122AF3248E04122A81
:1048B000F3738E04122AF3808E04122AF3898E0475
:1048C000122AF3078F04122AF3638F04122AF3AE1D
:1048D0008F04122AF3C98F04122AF3F48F04122AC8
:1048E000F3119004122AF31D9004122AF3B49104D8
:1048F000122AF3CD9104122AF3529204122AF3657C
:104900009204122AF3849204122AF3289304122A9E
:10491000F3A99404122AF35C9604122AF3F2960483
:10492000122AF3F59604122AF3659704122AF383E8
:104930009704122AF31A9804122AF3629804122A8E
:10494000F3659804122AF32B9904122AF398990418
:10495000122AF3BE9904122AF3499A04122AF36721
:104960009A04122AF3AD9A04122AF3619B04122AC4
:10497000F3AB9B04122AF3DA9B04122AF3379C044C
:10498000122AF36C9C04122AF3989C04122AF3A6B0
:104990009C04122AF3F39C04122AF3639D04122A46
:1049A000F3AC9D04122AF3F89D04122AF3249E040A
:1049B000122AF32F9E04122AF34D9E04122AF33872
:1049C0009F04122AF3429F04122AF37D9F04122AA5
:1049D000F38D9F04122AF3969F04122AF3EA9F0490
:1049E000122AF3FE9F04122AF32DA104122AF34087
:1049F000A104122AF355A104122AF3E3A104122AF6
:104A0000F328A204122AF3B4A204122AF3BFA204C8
:104A1000122AF301A404122AF31CA404122AF36834
:104A2000A404122AF3D7A404122AF310A504122A0C
:104A3000F32AA504122AF38AA504122AF329A6044C
:104A4000122AF374A604122AF344A904122AF3F6D4
:104A5000A904122AF363AA04122AF3A3AC04122AAB
:104A6000F3BBAC04122AF3BEAC04122AF3CAAC04A2
:104A7000122AF3DEAC04122AF3E6AC04122AF3196C
:104A8000AD04122AF31CAE04122AF3A9AE04122AB2
:104A9000F319AF04122AF39BAF04122AF35CB0049B
:104AA000122AF37BB004122AF31CB104122AF37900
:104AB000B104122AF37CB104122AF3F0B104122AD1
:104AC000F33FB304122AF345B404122AF3D0B4041A
:104AD000122AF3EBB504122AF3B3B604122AF3E454
:104AE000B604122AF307B704122AF310B704122AE5
:104AF000F33FB704122AF3CFB704122AF385B804A0
:104B0000122AF3FAB804122AF3A1B904122AF316EE
:104B1000BA04122AF34DBA04122AF38BBA04122AE9
:104B2000F389F904122AF332F904122AF386F804FD
:104B3000122AF3BEF604122AF307F604122AF3D45B
:104B4000F504122AF389F504122AF324F504122A33
:104B5000F3E3F404122AF3C3F404122AF3F5F30482
:104B6000122AF382F304122AF320F304122AF3C365
:104B7000F204122AF336F104122AF3D3F004122AB3
:104B8000F327F004122AF31EF004122AF312F004A1
:104B9000122AF3DFEF04122AF390EC04122AF362D4
:104BA000EC04122AF3FDEB04122AF3EAEB04122AB6
:104BB000F3DFEB04122AF3A3EB04122AF3E0E2057D
:104BC000122AF3D1E904122AF3A2E205122AF37C95
:104BD000E205122AF300E205122AF3F5FC04122A78
:104BE000F3AAFC04122AF33EFC04122AF3BAE904E5
:104BF000122AF3F0E804122AF34DE804122AF3DB38
:104C0000FB04122AF371E604122AF313E504122AB4
:104C1000F308E504122AF380E404122AF38DE50672
:104C2000122AF317E404122AF3B1FB04122AF3F355
:104C3000E304122AF3DD8C06122AF3968C06122A5C
:104C4000F3358C06122AF3008C06122AF3D58B0654
:104C5000122AF3A18B06122AF3798B06122AF3FC8F
:104C60008A06122AF3E68A06122AF3B68A06122A5E
:104C7000F32C8A06122AF36B8606122AF32984067D
:104C8000122AF3D78106122AF35F8106122AF30053
:104C90008006122AF3108106122AF39D8006122A3A
:104CA000F35E8006122AF3FDE10400000080FB8F12
:104CB000000100DF1C870001009D1935000400A2DF
:104CC0001C25000200A61C26000200A81C270002CA
:104CD00000AA1C28000100B41C29000100B51C8496
:104CE000000400761986000100161C2A000100B697
:104CF0001C2B000100B71C2C000100BD1C2D00085E
:104D00000084192E000100BE1C2F000100BF1C30C2
:104D1000000100C01C31000100C11C32000100C2B2
:104D20001C33000100C31C34000100C41C36000108
:104D3000008C1938000100C51C39000100BC1C831F
:104D4000000200DC1C63000100981964000100B837
:104D50001C65000100B91C6D000100991971000863
:104D6000007C1966000100DB1C43000100CC1C44E0
:104D7000000200CD1C45000100CF1C46000200D0FF
:104D80001C47000800901948000100D21C4B00018C
:104D900000D31C04000100DE1CA1000100E21C374E
:104DA000000100E11C88000100E01C3C0001008DB6
:104DB000193D000100C61C49000200D41C67000117
:104DC000009A194D000200D61C4E000100D81C4F5D
:104DD000000200D91C3E0001008F1951000100C8DB
:104DE0001C52000100C91C53000100CB1C540001DF
:104DF000008E19000000000000000136360101009D
:104E00000102010001030100010401060605020080
:104E100000070100340801000F090401010D010021
:104E2000FF0E08000017020000190100FF1A010020
:104E3000011B0100FE1C0100081D0200001F0100F3
:104E40000120010001210200002301000F240200C3
:104E5000002601000127010008280200FF2A0100A6
:104E6000072B0102402C0100002D0100012E010042
:104E7000012F0100FF30010B1D310800003A010035
:104E8000083B01000F3C0100013D0100FF3E040012
:104E90000042040000460400004A0400004E0400E2
:104EA0000052040000560400005A0400000103717F
:104EB00003010301030103010301032203020301B0
:104EC00003100300030003000300030003000300BA
:104ED0000342030003240306030003000304031238
:104EE0000325032303250323030403040300030012
:104EF00003000344030003000323030003650321AD
:104F000000350381030003050300030003000300D1
:104F100003250323030302710230016002110270B2
:104F2000020102020202028002100261023A004102
:104F3000006302730272026202430200021302382B
:104F4000000002000204021202000200020002003D
:104F50000204020402370037003C02440200023916
:104F60000000020002650200023502810200020513
:104F7000028202830200020300710030016000110E
:104F80000070003102200350048000100061000016
:104F900000140063007300720062004300000013FD
:104FA00000060000000000040012000000000000E5
:104FB00000000004000400370037003C02440000F9
:104FC00000000000000000650000003500810000C6
:104FD00000050000008300000001017101010101D2
:104FE0000111010101310101010101800110016183
:104FF000013B00140063017301720162014301006F
:1050000001130106013D01350004011201000100F8
:10501000010001000104010401330133013C01449A
:1050200001320136000001000165010001350081F7
:1050300001000105018201830100010304710402E2
:105040000460041104700402040204010402041048
:1050500004610400041404630473047204620443CE
:1050600004000413040604000400040404120400F1
:10507000040004000400045104640000040004005F
:105080000444040004000400040004650400043522
:105090000481046400050400048304000436000154
:1050A00000060000000F00000000000000000000EB
:1050B00000000003FFFF00000403FFFF0000FFFFEC
:1050C0000FF4010005C4040320000100000B0000E0
:1050D00000000000000003010F00000000000000BD
:1050E00000000000000000000000000000000000C0
:1050F00000000000000000000000001300EA391F5B
:1051000000F0391F80F6390000923A0100923A020D
:10511000006C390280663903007239040078390462
:10512000807E3905008439060090393000AE39316F
:1051300000A8393200BA393300C0393500C63934D5
:1051400000CC393600D2391100DE391400E43915AB
:1051500000A239FFFF00000A000000020000000466
:1051600000000008000000100000002000000040C7
:1051700000000080000000000100000002000000AC
:1051800004000000080000001000000020000000E3
:1051900040000001824406B24408AC440BD04410E5
:1051A00098400AE24402884405A044078E440C6AF1
:1051B000440D764464643EFF000007ECFDFDFDEC09
:1051C000DCDCCCBCACAC9C9C8C7C7C6C6C5C5C5C9F
:1051D0004C4C3C3C2C2C1C1C03EAF5E5D5D5C5B544
:1051E000A59595858575756565555545453535256F
:1051F0002515150500160F00000B150B02000222E5
:105200000F3300000E0F000000000000000000003F
:105210000000000000005A6967426565416C6C69D6
:10522000616E63653039D0D1D2D3D4D5D6D7D8D931
:10523000DADBDCDDDEDF0001191618161618230391
:105240000000034D4C4651181A250502303016183F
:105250001920231A1C1E30003C40423A3F3F392F90
:105260004730303017181921301B1D1F300C0E022B
:105270000B040B0A0708000F0204020101010109D7
:105280000200BE040AE80300000E000000E8030C60
:1052900000280000007F00050300010C1E010A0C1D
:1052A000080803FF01280004040209033C0C050858
:1052B00010081EC082C083901793E4F0A3F07CCC4A
:1052C0007D197A017B171235EE123E941240E612D8
:1052D0003E9A02684074F212253574FE122BD6E90C
:1052E000FF8A08EBFE8C09E9703374026A70167944
:1052F000081238D6E4F50AF50B780A122B2B780A37
:10530000122B2F805374016A600302543A790812F9
:1053100038D67B00EEFAF9123F0602543574016F5D
:10532000600874026F600302543AEA600874036A0A
:1053300060030253D5124308E960537403650860A3
:105340004D12343E8A0A8B0B780A122B2B750A01F8
:10535000780A122B2F750A00780A122B2FE509F50F
:105360000A780A122B2FEEF50A780A122B2F9017C3
:105370001B12296B901C16E0F97C907D19901CDCA7
:10538000126667123EBE740A122B3E025435790231
:105390001238D6901C16E0F990171B122DD5123E2C
:1053A000ACE9F890172BE0A2E34010E9700D9017DC
:1053B00097E004F064047003125456740365087097
:1053C00076901798E0F9740129F0E9C394054067D5
:1053D000125456806274016A706074016F790A70A9
:1053E0002C1238D67A007B04901A9DE0F91235B25F
:1053F000AA18AB19795012635B126376E812780829
:105400007900901A50126667123F4E80441238D6C7
:10541000901CB012296B7A007B20901720E0F912C3
:1054200035A67404122B3E901C16E0F990171B123F
:105430002DD5123EE8E9F8E8601790820112296B39
:105440007A017B00901720E0F91235A67404122B24
:105450003E7402027C9C90171BE4F0A374F8F0A346
:1054600074FFF0A37407F02274F6122535E9FFEA01
:10547000FE7AD1F91234628A828B83E58245837089
:105480002A7A027B00123444EA4B700E7A107B00B9
:10549000901720E0F912348680148A828B8374D1AD
:1054A000F0EFA3F0EEF91234508003EFA3F00256B0
:1054B000B674F71225358908900401126789901C8B
:1054C00098E0F47003A3E0F47030900524E0901CA1
:1054D00098F0A3E4F080238E828F831265EA600F38
:1054E0008E828F83A3A31265E7FAA90812394E8E24
:1054F000828F83126368E8FEE9FFEE4F70D9901C3B
:1055000098E0F47003A3E0F4600A901C98E0FAA914
:105510000812394E1245A89016EB125DBE1245A234
:105520007F0102281D74F0122535890B8C0C75093A
:10553000007508007410122E041263687412122E83
:105540000412576480471255EEF50EA3E0F50FAE36
:1055500008EE2EFEE433FFEA2EF582EB126C356581
:105560000E7004A3E0650F7019AE09EE2EFEE43351
:10557000FFEC2EF582ED3FF583E50EF0A3E50FF08D
:105580000509050AE50AC3950C40BB0508E508C3F3
:10559000950B5005750A0080EBA90980007F080271
:1055A000281D74F4122535890B7D00740C122E040D
:1055B00012636880010DEDC3950B502E750A0080B3
:1055C00002050AE50AC39C50ECED25E0FEE433FF3A
:1055D000EA2EF582EB3F1277D61255EE650870047D
:1055E000A3E0650970DB7901800279008014AE0ABE
:1055F000EE2EFEE433FFE82EF582E9125D5B221207
:105600002B3E7F0402281D022AF074F61225351263
:1056100056A07003A3E06D701775082975091778F7
:1056200008122B2BEEFA123A987402122B3E801AB3
:105630007508027509807808122B2B8A0889097869
:1056400008122B2B12568E122B3E806A74F61225EE
:10565000351256A07003A3E06D70177508367509F2
:10566000177808122B2BEEFA123A9E7402122B3E78
:10567000801A7508037509807808122B2B8A08890F
:10568000097808122B2B12568E122B3E8028EE24FE
:105690000E125D58FD7C801268E6123ABC7404223A
:1056A000EAFEEBFF1268FBFCE439FD9016EBE06CC0
:1056B000227402122B3E7F0202281D74F612253539
:1056C00074FE122BD68A088B09851882851983E40B
:1056D000F0A3F01261D7126A2FFBECFA888289835B
:1056E000A3A3E0F97F007E00600574FF6970047E6B
:1056F0008280459016EBE06A7003A3E06B701AAAF3
:1057000018AB19124C5CE9FA851882851983126866
:105710002D70027E83EAFF801F90199DE060046473
:1057200001700E123E1CE960047E89800B7E818030
:1057300007E0640270027E8012575EEEF9AA08ABA1
:1057400009123AA4EF601485188285198312682D16
:10575000600985188285198312726A0256B185180C
:1057600082851983E0FCA3E0FD22022AF074F21284
:105770002535EAFEEBFF7508007509001268F7F59C
:105780000AE439F50B1245A8EA650A7003EB650BCC
:105790007012124C4AE914F50879017A5F7B1712EE
:1057A0004C448003750980126C2FF50C780C122B79
:1057B0002F750C5F750D17780C122B2B7808122B98
:1057C0002F780A122B2BE509F5087808122B2F12D7
:1057D0006656126C32F97A057B80123AAA74070277
:1057E0007C9C74F6122535E9FF7E0080308A828B1E
:1057F000831277DEF8E4C8F9E50828E439F509EE04
:1058000025E0F8E433F9EC28F582ED39F583E50875
:10581000F0A3E509F0EA2402FA50010B0EEEC39F53
:1058200040CB0256B674E812253574FE122BD68A88
:10583000108B11750F00851882851983E4F0A3F091
:10584000F516F5171264B635111279AE127E0FFAFD
:105850008E828F83A3A3A3E0F9EAF508E439F50962
:10586000AA0AAB0B124644E96401702B12762F1280
:105870002B2FE4F508F5097808122B2B7808122B4A
:105880002F780A122B2B7508807808122B2F125BA9
:10589000FD122B3E025BE6AA0AAB0B124644E970EE
:1058A000419016EBE0650A7004A3E0650B6033904D
:1058B000199DE06402702812762F122B2FE4F50850
:1058C000F5097808122B2B7808122B2F780A122B47
:1058D0002B7508807808122B2F125BFD122B3E02CD
:1058E0005BE68E828F83A3A3A3A3E0F50BEE2405D2
:1058F000FE50010FE50B602A127CF3851882851992
:1059000083EAF0A3EB126C4CE849601612575EEE86
:10591000FAEFFBA90B12398A8A0C8B0DAE0CAF0D76
:105920008003750B00127D09601A127CF38A168BB6
:1059300017EA4B600FAC16AD17EEFAEFFBA90A128F
:10594000398A8003750A0090040180508E828F830B
:10595000A3A3A3A3A3A3A3A3E4F0A3F0EEFAEFFBF6
:10596000851482851583A3A3E0F81265E7F9123444
:1059700050851282851383E0C0E0A80F745F28F57C
:1059800082E43417F583D0E0F0050FA2005007AA97
:1059900012AB131234EC851482851583E0F514A341
:1059A000E0F515E51445157003025B6485148285E6
:1059B00015831265EA60DF851482851583A3A3A38E
:1059C000A3A3A3A3A3E0A2E050CC851482851583F2
:1059D000A3A3A3A312682D851482851583A3A360B6
:1059E0001E1265ECFA7901851482851583A3A3A3A1
:1059F000A3125BF012277E8A128B13D20080101242
:105A00005BF0A3A3A3A3E0F512A3E0F513C200E5A6
:105A1000124513700302598B851282851383A3E00C
:105A200065087004A3E06509600F74FF65087004E1
:105A300074FF6509600302598B851282851383A365
:105A4000A3A3A3A3A3A3122973851282851383A3FF
:105A5000A3A3A3A3A3E0FC7402122E04126667A9F9
:105A60000B1239607402122B3EE970388512828560
:105A70001383A3A3A3A3A3A3A3A3A3A312297385FF
:105A80001282851383A3A3A3A3A3A3A3A3A3E0FCD0
:105A9000AA16AB17A90A1239607402122B3EE970DC
:105AA0000302598BE50A250BC333240AFA7B001243
:105AB00034448A0C8B0DAE0CAF0DEA4F70030259C3
:105AC000718A828B8374D2126E258A828B83A3A300
